{
  "_format": "hh-sol-artifact-1",
  "contractName": "TokenMaster",
  "sourceName": "contracts/TokenMaster.sol",
  "abi": [
    {
      "inputs": [
        {
          "internalType": "string",
          "name": "_name",
          "type": "string"
        },
        {
          "internalType": "string",
          "name": "_symbol",
          "type": "string"
        }
      ],
      "stateMutability": "nonpayable",
      "type": "constructor"
    },
    {
      "anonymous": false,
      "inputs": [
        {
          "indexed": true,
          "internalType": "address",
          "name": "owner",
          "type": "address"
        },
        {
          "indexed": true,
          "internalType": "address",
          "name": "approved",
          "type": "address"
        },
        {
          "indexed": true,
          "internalType": "uint256",
          "name": "tokenId",
          "type": "uint256"
        }
      ],
      "name": "Approval",
      "type": "event"
    },
    {
      "anonymous": false,
      "inputs": [
        {
          "indexed": true,
          "internalType": "address",
          "name": "owner",
          "type": "address"
        },
        {
          "indexed": true,
          "internalType": "address",
          "name": "operator",
          "type": "address"
        },
        {
          "indexed": false,
          "internalType": "bool",
          "name": "approved",
          "type": "bool"
        }
      ],
      "name": "ApprovalForAll",
      "type": "event"
    },
    {
      "anonymous": false,
      "inputs": [
        {
          "indexed": true,
          "internalType": "address",
          "name": "from",
          "type": "address"
        },
        {
          "indexed": true,
          "internalType": "address",
          "name": "to",
          "type": "address"
        },
        {
          "indexed": true,
          "internalType": "uint256",
          "name": "tokenId",
          "type": "uint256"
        }
      ],
      "name": "Transfer",
      "type": "event"
    },
    {
      "inputs": [
        {
          "internalType": "address",
          "name": "to",
          "type": "address"
        },
        {
          "internalType": "uint256",
          "name": "tokenId",
          "type": "uint256"
        }
      ],
      "name": "approve",
      "outputs": [],
      "stateMutability": "nonpayable",
      "type": "function"
    },
    {
      "inputs": [
        {
          "internalType": "address",
          "name": "owner",
          "type": "address"
        }
      ],
      "name": "balanceOf",
      "outputs": [
        {
          "internalType": "uint256",
          "name": "",
          "type": "uint256"
        }
      ],
      "stateMutability": "view",
      "type": "function"
    },
    {
      "inputs": [
        {
          "internalType": "uint256",
          "name": "tokenId",
          "type": "uint256"
        }
      ],
      "name": "getApproved",
      "outputs": [
        {
          "internalType": "address",
          "name": "",
          "type": "address"
        }
      ],
      "stateMutability": "view",
      "type": "function"
    },
    {
      "inputs": [
        {
          "internalType": "uint256",
          "name": "_id",
          "type": "uint256"
        }
      ],
      "name": "getOccasion",
      "outputs": [
        {
          "components": [
            {
              "internalType": "uint256",
              "name": "id",
              "type": "uint256"
            },
            {
              "internalType": "string",
              "name": "name",
              "type": "string"
            },
            {
              "internalType": "uint256",
              "name": "cost",
              "type": "uint256"
            },
            {
              "internalType": "uint256",
              "name": "tickets",
              "type": "uint256"
            },
            {
              "internalType": "uint256",
              "name": "maxTickets",
              "type": "uint256"
            },
            {
              "internalType": "string",
              "name": "date",
              "type": "string"
            },
            {
              "internalType": "string",
              "name": "time",
              "type": "string"
            },
            {
              "internalType": "string",
              "name": "location",
              "type": "string"
            }
          ],
          "internalType": "struct TokenMaster.Occasion",
          "name": "",
          "type": "tuple"
        }
      ],
      "stateMutability": "view",
      "type": "function"
    },
    {
      "inputs": [
        {
          "internalType": "uint256",
          "name": "_id",
          "type": "uint256"
        }
      ],
      "name": "getSeatsTaken",
      "outputs": [
        {
          "internalType": "uint256[]",
          "name": "",
          "type": "uint256[]"
        }
      ],
      "stateMutability": "view",
      "type": "function"
    },
    {
      "inputs": [
        {
          "internalType": "uint256",
          "name": "",
          "type": "uint256"
        },
        {
          "internalType": "address",
          "name": "",
          "type": "address"
        }
      ],
      "name": "hasBought",
      "outputs": [
        {
          "internalType": "bool",
          "name": "",
          "type": "bool"
        }
      ],
      "stateMutability": "view",
      "type": "function"
    },
    {
      "inputs": [
        {
          "internalType": "address",
          "name": "owner",
          "type": "address"
        },
        {
          "internalType": "address",
          "name": "operator",
          "type": "address"
        }
      ],
      "name": "isApprovedForAll",
      "outputs": [
        {
          "internalType": "bool",
          "name": "",
          "type": "bool"
        }
      ],
      "stateMutability": "view",
      "type": "function"
    },
    {
      "inputs": [
        {
          "internalType": "string",
          "name": "_name",
          "type": "string"
        },
        {
          "internalType": "uint256",
          "name": "_cost",
          "type": "uint256"
        },
        {
          "internalType": "uint256",
          "name": "_maxTicket",
          "type": "uint256"
        },
        {
          "internalType": "string",
          "name": "_date",
          "type": "string"
        },
        {
          "internalType": "string",
          "name": "_time",
          "type": "string"
        },
        {
          "internalType": "string",
          "name": "_location",
          "type": "string"
        }
      ],
      "name": "list",
      "outputs": [],
      "stateMutability": "nonpayable",
      "type": "function"
    },
    {
      "inputs": [
        {
          "internalType": "uint256",
          "name": "_id",
          "type": "uint256"
        },
        {
          "internalType": "uint256",
          "name": "_seat",
          "type": "uint256"
        }
      ],
      "name": "mint",
      "outputs": [],
      "stateMutability": "payable",
      "type": "function"
    },
    {
      "inputs": [],
      "name": "name",
      "outputs": [
        {
          "internalType": "string",
          "name": "",
          "type": "string"
        }
      ],
      "stateMutability": "view",
      "type": "function"
    },
    {
      "inputs": [],
      "name": "owner",
      "outputs": [
        {
          "internalType": "address",
          "name": "",
          "type": "address"
        }
      ],
      "stateMutability": "view",
      "type": "function"
    },
    {
      "inputs": [
        {
          "internalType": "uint256",
          "name": "tokenId",
          "type": "uint256"
        }
      ],
      "name": "ownerOf",
      "outputs": [
        {
          "internalType": "address",
          "name": "",
          "type": "address"
        }
      ],
      "stateMutability": "view",
      "type": "function"
    },
    {
      "inputs": [
        {
          "internalType": "address",
          "name": "from",
          "type": "address"
        },
        {
          "internalType": "address",
          "name": "to",
          "type": "address"
        },
        {
          "internalType": "uint256",
          "name": "tokenId",
          "type": "uint256"
        }
      ],
      "name": "safeTransferFrom",
      "outputs": [],
      "stateMutability": "nonpayable",
      "type": "function"
    },
    {
      "inputs": [
        {
          "internalType": "address",
          "name": "from",
          "type": "address"
        },
        {
          "internalType": "address",
          "name": "to",
          "type": "address"
        },
        {
          "internalType": "uint256",
          "name": "tokenId",
          "type": "uint256"
        },
        {
          "internalType": "bytes",
          "name": "data",
          "type": "bytes"
        }
      ],
      "name": "safeTransferFrom",
      "outputs": [],
      "stateMutability": "nonpayable",
      "type": "function"
    },
    {
      "inputs": [
        {
          "internalType": "uint256",
          "name": "",
          "type": "uint256"
        },
        {
          "internalType": "uint256",
          "name": "",
          "type": "uint256"
        }
      ],
      "name": "seatTaken",
      "outputs": [
        {
          "internalType": "address",
          "name": "",
          "type": "address"
        }
      ],
      "stateMutability": "view",
      "type": "function"
    },
    {
      "inputs": [
        {
          "internalType": "uint256",
          "name": "",
          "type": "uint256"
        },
        {
          "internalType": "uint256",
          "name": "",
          "type": "uint256"
        }
      ],
      "name": "seatsTaken",
      "outputs": [
        {
          "internalType": "uint256",
          "name": "",
          "type": "uint256"
        }
      ],
      "stateMutability": "view",
      "type": "function"
    },
    {
      "inputs": [
        {
          "internalType": "address",
          "name": "operator",
          "type": "address"
        },
        {
          "internalType": "bool",
          "name": "approved",
          "type": "bool"
        }
      ],
      "name": "setApprovalForAll",
      "outputs": [],
      "stateMutability": "nonpayable",
      "type": "function"
    },
    {
      "inputs": [
        {
          "internalType": "bytes4",
          "name": "interfaceId",
          "type": "bytes4"
        }
      ],
      "name": "supportsInterface",
      "outputs": [
        {
          "internalType": "bool",
          "name": "",
          "type": "bool"
        }
      ],
      "stateMutability": "view",
      "type": "function"
    },
    {
      "inputs": [],
      "name": "symbol",
      "outputs": [
        {
          "internalType": "string",
          "name": "",
          "type": "string"
        }
      ],
      "stateMutability": "view",
      "type": "function"
    },
    {
      "inputs": [
        {
          "internalType": "uint256",
          "name": "tokenId",
          "type": "uint256"
        }
      ],
      "name": "tokenURI",
      "outputs": [
        {
          "internalType": "string",
          "name": "",
          "type": "string"
        }
      ],
      "stateMutability": "view",
      "type": "function"
    },
    {
      "inputs": [],
      "name": "totalOccasions",
      "outputs": [
        {
          "internalType": "uint256",
          "name": "",
          "type": "uint256"
        }
      ],
      "stateMutability": "view",
      "type": "function"
    },
    {
      "inputs": [],
      "name": "totalSupply",
      "outputs": [
        {
          "internalType": "uint256",
          "name": "",
          "type": "uint256"
        }
      ],
      "stateMutability": "view",
      "type": "function"
    },
    {
      "inputs": [
        {
          "internalType": "address",
          "name": "from",
          "type": "address"
        },
        {
          "internalType": "address",
          "name": "to",
          "type": "address"
        },
        {
          "internalType": "uint256",
          "name": "tokenId",
          "type": "uint256"
        }
      ],
      "name": "transferFrom",
      "outputs": [],
      "stateMutability": "nonpayable",
      "type": "function"
    },
    {
      "inputs": [],
      "name": "withdraw",
      "outputs": [],
      "stateMutability": "nonpayable",
      "type": "function"
    }
  ],
  "bytecode": "0x60806040523480156200001157600080fd5b5060405162003e0138038062003e0183398181016040528101906200003791906200023b565b818181600090816200004a91906200050b565b5080600190816200005c91906200050b565b50505033600660006101000a81548173ffffffffffffffffffffffffffffffffffffffff021916908373ffffffffffffffffffffffffffffffffffffffff1602179055505050620005f2565b6000604051905090565b600080fd5b600080fd5b600080fd5b600080fd5b6000601f19601f8301169050919050565b7f4e487b7100000000000000000000000000000000000000000000000000000000600052604160045260246000fd5b6200011182620000c6565b810181811067ffffffffffffffff82111715620001335762000132620000d7565b5b80604052505050565b600062000148620000a8565b905062000156828262000106565b919050565b600067ffffffffffffffff821115620001795762000178620000d7565b5b6200018482620000c6565b9050602081019050919050565b60005b83811015620001b157808201518184015260208101905062000194565b60008484015250505050565b6000620001d4620001ce846200015b565b6200013c565b905082815260208101848484011115620001f357620001f2620000c1565b5b6200020084828562000191565b509392505050565b600082601f83011262000220576200021f620000bc565b5b815162000232848260208601620001bd565b91505092915050565b60008060408385031215620002555762000254620000b2565b5b600083015167ffffffffffffffff811115620002765762000275620000b7565b5b620002848582860162000208565b925050602083015167ffffffffffffffff811115620002a857620002a7620000b7565b5b620002b68582860162000208565b9150509250929050565b600081519050919050565b7f4e487b7100000000000000000000000000000000000000000000000000000000600052602260045260246000fd5b600060028204905060018216806200031357607f821691505b602082108103620003295762000328620002cb565b5b50919050565b60008190508160005260206000209050919050565b60006020601f8301049050919050565b600082821b905092915050565b600060088302620003937fffffffffffffffffffffffffffffffffffffffffffffffffffffffffffffffff8262000354565b6200039f868362000354565b95508019841693508086168417925050509392505050565b6000819050919050565b6000819050919050565b6000620003ec620003e6620003e084620003b7565b620003c1565b620003b7565b9050919050565b6000819050919050565b6200040883620003cb565b620004206200041782620003f3565b84845462000361565b825550505050565b600090565b6200043762000428565b62000444818484620003fd565b505050565b5b818110156200046c57620004606000826200042d565b6001810190506200044a565b5050565b601f821115620004bb5762000485816200032f565b620004908462000344565b81016020851015620004a0578190505b620004b8620004af8562000344565b83018262000449565b50505b505050565b600082821c905092915050565b6000620004e060001984600802620004c0565b1980831691505092915050565b6000620004fb8383620004cd565b9150826002028217905092915050565b6200051682620002c0565b67ffffffffffffffff811115620005325762000531620000d7565b5b6200053e8254620002fa565b6200054b82828562000470565b600060209050601f8311600181146200058357600084156200056e578287015190505b6200057a8582620004ed565b865550620005ea565b601f19841662000593866200032f565b60005b82811015620005bd5784890151825560018201915060208501945060208101905062000596565b86831015620005dd5784890151620005d9601f891682620004cd565b8355505b6001600288020188555050505b505050505050565b6137ff80620006026000396000f3fe60806040526004361061014b5760003560e01c806370a08231116100b65780639cb04aef1161006f5780639cb04aef146104a9578063a22cb465146104e6578063af296da11461050f578063b88d4fde1461054c578063c87b56dd14610575578063e985e9c5146105b25761014b565b806370a082311461038557806374bc8656146103c25780638da5cb5b146103ff578063953865c11461042a57806395d89b41146104555780639a382f0f146104805761014b565b80631b2ef1ca116101085780631b2ef1ca1461028657806323b872dd146102a25780633ccfd60b146102cb57806342842e0e146102e25780634e7497fc1461030b5780636352211e146103485761014b565b806301ffc9a71461015057806306fdde031461018d578063081812fc146101b8578063095ea7b3146101f55780630ef7ec741461021e57806318160ddd1461025b575b600080fd5b34801561015c57600080fd5b506101776004803603810190610172919061235d565b6105ef565b60405161018491906123a5565b60405180910390f35b34801561019957600080fd5b506101a26106d1565b6040516101af9190612450565b60405180910390f35b3480156101c457600080fd5b506101df60048036038101906101da91906124a8565b610763565b6040516101ec9190612516565b60405180910390f35b34801561020157600080fd5b5061021c6004803603810190610217919061255d565b6107a9565b005b34801561022a57600080fd5b50610245600480360381019061024091906124a8565b6108c0565b604051610252919061265b565b60405180910390f35b34801561026757600080fd5b5061027061092b565b60405161027d919061268c565b60405180910390f35b6102a0600480360381019061029b91906126a7565b610931565b005b3480156102ae57600080fd5b506102c960048036038101906102c491906126e7565b610b6c565b005b3480156102d757600080fd5b506102e0610bcc565b005b3480156102ee57600080fd5b50610309600480360381019061030491906126e7565b610cc1565b005b34801561031757600080fd5b50610332600480360381019061032d91906126a7565b610ce1565b60405161033f919061268c565b60405180910390f35b34801561035457600080fd5b5061036f600480360381019061036a91906124a8565b610d12565b60405161037c9190612516565b60405180910390f35b34801561039157600080fd5b506103ac60048036038101906103a7919061273a565b610d98565b6040516103b9919061268c565b60405180910390f35b3480156103ce57600080fd5b506103e960048036038101906103e491906124a8565b610e4f565b6040516103f69190612876565b60405180910390f35b34801561040b57600080fd5b506104146110ed565b6040516104219190612516565b60405180910390f35b34801561043657600080fd5b5061043f611113565b60405161044c919061268c565b60405180910390f35b34801561046157600080fd5b5061046a611119565b6040516104779190612450565b60405180910390f35b34801561048c57600080fd5b506104a760048036038101906104a291906129cd565b6111ab565b005b3480156104b557600080fd5b506104d060048036038101906104cb9190612aca565b6112f9565b6040516104dd91906123a5565b60405180910390f35b3480156104f257600080fd5b5061050d60048036038101906105089190612b36565b611328565b005b34801561051b57600080fd5b50610536600480360381019061053191906126a7565b61133e565b6040516105439190612516565b60405180910390f35b34801561055857600080fd5b50610573600480360381019061056e9190612c17565b611380565b005b34801561058157600080fd5b5061059c600480360381019061059791906124a8565b6113e2565b6040516105a99190612450565b60405180910390f35b3480156105be57600080fd5b506105d960048036038101906105d49190612c9a565b61144a565b6040516105e691906123a5565b60405180910390f35b60007f80ac58cd000000000000000000000000000000000000000000000000000000007bffffffffffffffffffffffffffffffffffffffffffffffffffffffff1916827bffffffffffffffffffffffffffffffffffffffffffffffffffffffff191614806106ba57507f5b5e139f000000000000000000000000000000000000000000000000000000007bffffffffffffffffffffffffffffffffffffffffffffffffffffffff1916827bffffffffffffffffffffffffffffffffffffffffffffffffffffffff1916145b806106ca57506106c9826114de565b5b9050919050565b6060600080546106e090612d09565b80601f016020809104026020016040519081016040528092919081815260200182805461070c90612d09565b80156107595780601f1061072e57610100808354040283529160200191610759565b820191906000526020600020905b81548152906001019060200180831161073c57829003601f168201915b5050505050905090565b600061076e82611548565b6004600083815260200190815260200160002060009054906101000a900473ffffffffffffffffffffffffffffffffffffffff169050919050565b60006107b482610d12565b90508073ffffffffffffffffffffffffffffffffffffffff168373ffffffffffffffffffffffffffffffffffffffff1603610824576040517f08c379a000000000000000000000000000000000000000000000000000000000815260040161081b90612dac565b60405180910390fd5b8073ffffffffffffffffffffffffffffffffffffffff16610843611593565b73ffffffffffffffffffffffffffffffffffffffff16148061087257506108718161086c611593565b61144a565b5b6108b1576040517f08c379a00000000000000000000000000000000000000000000000000000000081526004016108a890612e3e565b60405180910390fd5b6108bb838361159b565b505050565b6060600c600083815260200190815260200160002080548060200260200160405190810160405280929190818152602001828054801561091f57602002820191906000526020600020905b81548152602001906001019080831161090b575b50505050509050919050565b60085481565b6000820361093e57600080fd5b60075482111561094d57600080fd5b600960008381526020019081526020016000206002015434101561097057600080fd5b600073ffffffffffffffffffffffffffffffffffffffff16600b6000848152602001908152602001600020600083815260200190815260200160002060009054906101000a900473ffffffffffffffffffffffffffffffffffffffff1673ffffffffffffffffffffffffffffffffffffffff16146109ed57600080fd5b6009600083815260200190815260200160002060040154811115610a1057600080fd5b6001600960008481526020019081526020016000206003016000828254610a379190612e8d565b925050819055506001600a600084815260200190815260200160002060003373ffffffffffffffffffffffffffffffffffffffff1673ffffffffffffffffffffffffffffffffffffffff16815260200190815260200160002060006101000a81548160ff02191690831515021790555033600b6000848152602001908152602001600020600083815260200190815260200160002060006101000a81548173ffffffffffffffffffffffffffffffffffffffff021916908373ffffffffffffffffffffffffffffffffffffffff160217905550600c600083815260200190815260200160002081908060018154018082558091505060019003906000526020600020016000909190919091505560086000815480929190610b5790612ec1565b9190505550610b6833600854611654565b5050565b610b7d610b77611593565b82611672565b610bbc576040517f08c379a0000000000000000000000000000000000000000000000000000000008152600401610bb390612f7b565b60405180910390fd5b610bc7838383611707565b505050565b600660009054906101000a900473ffffffffffffffffffffffffffffffffffffffff1673ffffffffffffffffffffffffffffffffffffffff163373ffffffffffffffffffffffffffffffffffffffff1614610c2657600080fd5b6000600660009054906101000a900473ffffffffffffffffffffffffffffffffffffffff1673ffffffffffffffffffffffffffffffffffffffff1647604051610c6e90612fcc565b60006040518083038185875af1925050503d8060008114610cab576040519150601f19603f3d011682016040523d82523d6000602084013e610cb0565b606091505b5050905080610cbe57600080fd5b50565b610cdc83838360405180602001604052806000815250611380565b505050565b600c6020528160005260406000208181548110610cfd57600080fd5b90600052602060002001600091509150505481565b600080610d1e83611a00565b9050600073ffffffffffffffffffffffffffffffffffffffff168173ffffffffffffffffffffffffffffffffffffffff1603610d8f576040517f08c379a0000000000000000000000000000000000000000000000000000000008152600401610d869061302d565b60405180910390fd5b80915050919050565b60008073ffffffffffffffffffffffffffffffffffffffff168273ffffffffffffffffffffffffffffffffffffffff1603610e08576040517f08c379a0000000000000000000000000000000000000000000000000000000008152600401610dff906130bf565b60405180910390fd5b600360008373ffffffffffffffffffffffffffffffffffffffff1673ffffffffffffffffffffffffffffffffffffffff168152602001908152602001600020549050919050565b610e576122ac565b600960008381526020019081526020016000206040518061010001604052908160008201548152602001600182018054610e9090612d09565b80601f0160208091040260200160405190810160405280929190818152602001828054610ebc90612d09565b8015610f095780601f10610ede57610100808354040283529160200191610f09565b820191906000526020600020905b815481529060010190602001808311610eec57829003601f168201915b50505050508152602001600282015481526020016003820154815260200160048201548152602001600582018054610f4090612d09565b80601f0160208091040260200160405190810160405280929190818152602001828054610f6c90612d09565b8015610fb95780601f10610f8e57610100808354040283529160200191610fb9565b820191906000526020600020905b815481529060010190602001808311610f9c57829003601f168201915b50505050508152602001600682018054610fd290612d09565b80601f0160208091040260200160405190810160405280929190818152602001828054610ffe90612d09565b801561104b5780601f106110205761010080835404028352916020019161104b565b820191906000526020600020905b81548152906001019060200180831161102e57829003601f168201915b5050505050815260200160078201805461106490612d09565b80601f016020809104026020016040519081016040528092919081815260200182805461109090612d09565b80156110dd5780601f106110b2576101008083540402835291602001916110dd565b820191906000526020600020905b8154815290600101906020018083116110c057829003601f168201915b5050505050815250509050919050565b600660009054906101000a900473ffffffffffffffffffffffffffffffffffffffff1681565b60075481565b60606001805461112890612d09565b80601f016020809104026020016040519081016040528092919081815260200182805461115490612d09565b80156111a15780601f10611176576101008083540402835291602001916111a1565b820191906000526020600020905b81548152906001019060200180831161118457829003601f168201915b5050505050905090565b600660009054906101000a900473ffffffffffffffffffffffffffffffffffffffff1673ffffffffffffffffffffffffffffffffffffffff163373ffffffffffffffffffffffffffffffffffffffff161461120557600080fd5b6007600081548092919061121890612ec1565b919050555060405180610100016040528060075481526020018781526020018681526020018581526020018581526020018481526020018381526020018281525060096000600754815260200190815260200160002060008201518160000155602082015181600101908161128d919061328b565b5060408201518160020155606082015181600301556080820151816004015560a08201518160050190816112c1919061328b565b5060c08201518160060190816112d7919061328b565b5060e08201518160070190816112ed919061328b565b50905050505050505050565b600a6020528160005260406000206020528060005260406000206000915091509054906101000a900460ff1681565b61133a611333611593565b8383611a3d565b5050565b600b6020528160005260406000206020528060005260406000206000915091509054906101000a900473ffffffffffffffffffffffffffffffffffffffff1681565b61139161138b611593565b83611672565b6113d0576040517f08c379a00000000000000000000000000000000000000000000000000000000081526004016113c790612f7b565b60405180910390fd5b6113dc84848484611ba9565b50505050565b60606113ed82611548565b60006113f7611c05565b905060008151116114175760405180602001604052806000815250611442565b8061142184611c1c565b604051602001611432929190613399565b6040516020818303038152906040525b915050919050565b6000600560008473ffffffffffffffffffffffffffffffffffffffff1673ffffffffffffffffffffffffffffffffffffffff16815260200190815260200160002060008373ffffffffffffffffffffffffffffffffffffffff1673ffffffffffffffffffffffffffffffffffffffff16815260200190815260200160002060009054906101000a900460ff16905092915050565b60007f01ffc9a7000000000000000000000000000000000000000000000000000000007bffffffffffffffffffffffffffffffffffffffffffffffffffffffff1916827bffffffffffffffffffffffffffffffffffffffffffffffffffffffff1916149050919050565b61155181611cea565b611590576040517f08c379a00000000000000000000000000000000000000000000000000000000081526004016115879061302d565b60405180910390fd5b50565b600033905090565b816004600083815260200190815260200160002060006101000a81548173ffffffffffffffffffffffffffffffffffffffff021916908373ffffffffffffffffffffffffffffffffffffffff160217905550808273ffffffffffffffffffffffffffffffffffffffff1661160e83610d12565b73ffffffffffffffffffffffffffffffffffffffff167f8c5be1e5ebec7d5bd14f71427d1e84f3dd0314c0f7b2291e5b200ac8c7c3b92560405160405180910390a45050565b61166e828260405180602001604052806000815250611d2b565b5050565b60008061167e83610d12565b90508073ffffffffffffffffffffffffffffffffffffffff168473ffffffffffffffffffffffffffffffffffffffff1614806116c057506116bf818561144a565b5b806116fe57508373ffffffffffffffffffffffffffffffffffffffff166116e684610763565b73ffffffffffffffffffffffffffffffffffffffff16145b91505092915050565b8273ffffffffffffffffffffffffffffffffffffffff1661172782610d12565b73ffffffffffffffffffffffffffffffffffffffff161461177d576040517f08c379a00000000000000000000000000000000000000000000000000000000081526004016117749061342f565b60405180910390fd5b600073ffffffffffffffffffffffffffffffffffffffff168273ffffffffffffffffffffffffffffffffffffffff16036117ec576040517f08c379a00000000000000000000000000000000000000000000000000000000081526004016117e3906134c1565b60405180910390fd5b6117f98383836001611d86565b8273ffffffffffffffffffffffffffffffffffffffff1661181982610d12565b73ffffffffffffffffffffffffffffffffffffffff161461186f576040517f08c379a00000000000000000000000000000000000000000000000000000000081526004016118669061342f565b60405180910390fd5b6004600082815260200190815260200160002060006101000a81549073ffffffffffffffffffffffffffffffffffffffff02191690556001600360008573ffffffffffffffffffffffffffffffffffffffff1673ffffffffffffffffffffffffffffffffffffffff168152602001908152602001600020600082825403925050819055506001600360008473ffffffffffffffffffffffffffffffffffffffff1673ffffffffffffffffffffffffffffffffffffffff16815260200190815260200160002060008282540192505081905550816002600083815260200190815260200160002060006101000a81548173ffffffffffffffffffffffffffffffffffffffff021916908373ffffffffffffffffffffffffffffffffffffffff160217905550808273ffffffffffffffffffffffffffffffffffffffff168473ffffffffffffffffffffffffffffffffffffffff167fddf252ad1be2c89b69c2b068fc378daa952ba7f163c4a11628f55a4df523b3ef60405160405180910390a46119fb8383836001611d8c565b505050565b60006002600083815260200190815260200160002060009054906101000a900473ffffffffffffffffffffffffffffffffffffffff169050919050565b8173ffffffffffffffffffffffffffffffffffffffff168373ffffffffffffffffffffffffffffffffffffffff1603611aab576040517f08c379a0000000000000000000000000000000000000000000000000000000008152600401611aa29061352d565b60405180910390fd5b80600560008573ffffffffffffffffffffffffffffffffffffffff1673ffffffffffffffffffffffffffffffffffffffff16815260200190815260200160002060008473ffffffffffffffffffffffffffffffffffffffff1673ffffffffffffffffffffffffffffffffffffffff16815260200190815260200160002060006101000a81548160ff0219169083151502179055508173ffffffffffffffffffffffffffffffffffffffff168373ffffffffffffffffffffffffffffffffffffffff167f17307eab39ab6107e8899845ad3d59bd9653f200f220920489ca2b5937696c3183604051611b9c91906123a5565b60405180910390a3505050565b611bb4848484611707565b611bc084848484611d92565b611bff576040517f08c379a0000000000000000000000000000000000000000000000000000000008152600401611bf6906135bf565b60405180910390fd5b50505050565b606060405180602001604052806000815250905090565b606060006001611c2b84611f19565b01905060008167ffffffffffffffff811115611c4a57611c496128a2565b5b6040519080825280601f01601f191660200182016040528015611c7c5781602001600182028036833780820191505090505b509050600082602001820190505b600115611cdf578080600190039150507f3031323334353637383961626364656600000000000000000000000000000000600a86061a8153600a8581611cd357611cd26135df565b5b04945060008503611c8a575b819350505050919050565b60008073ffffffffffffffffffffffffffffffffffffffff16611d0c83611a00565b73ffffffffffffffffffffffffffffffffffffffff1614159050919050565b611d35838361206c565b611d426000848484611d92565b611d81576040517f08c379a0000000000000000000000000000000000000000000000000000000008152600401611d78906135bf565b60405180910390fd5b505050565b50505050565b50505050565b6000611db38473ffffffffffffffffffffffffffffffffffffffff16612289565b15611f0c578373ffffffffffffffffffffffffffffffffffffffff1663150b7a02611ddc611593565b8786866040518563ffffffff1660e01b8152600401611dfe9493929190613663565b6020604051808303816000875af1925050508015611e3a57506040513d601f19601f82011682018060405250810190611e3791906136c4565b60015b611ebc573d8060008114611e6a576040519150601f19603f3d011682016040523d82523d6000602084013e611e6f565b606091505b506000815103611eb4576040517f08c379a0000000000000000000000000000000000000000000000000000000008152600401611eab906135bf565b60405180910390fd5b805181602001fd5b63150b7a0260e01b7bffffffffffffffffffffffffffffffffffffffffffffffffffffffff1916817bffffffffffffffffffffffffffffffffffffffffffffffffffffffff191614915050611f11565b600190505b949350505050565b600080600090507a184f03e93ff9f4daa797ed6e38ed64bf6a1f0100000000000000008310611f77577a184f03e93ff9f4daa797ed6e38ed64bf6a1f0100000000000000008381611f6d57611f6c6135df565b5b0492506040810190505b6d04ee2d6d415b85acef81000000008310611fb4576d04ee2d6d415b85acef81000000008381611faa57611fa96135df565b5b0492506020810190505b662386f26fc100008310611fe357662386f26fc100008381611fd957611fd86135df565b5b0492506010810190505b6305f5e100831061200c576305f5e1008381612002576120016135df565b5b0492506008810190505b6127108310612031576127108381612027576120266135df565b5b0492506004810190505b60648310612054576064838161204a576120496135df565b5b0492506002810190505b600a8310612063576001810190505b80915050919050565b600073ffffffffffffffffffffffffffffffffffffffff168273ffffffffffffffffffffffffffffffffffffffff16036120db576040517f08c379a00000000000000000000000000000000000000000000000000000000081526004016120d29061373d565b60405180910390fd5b6120e481611cea565b15612124576040517f08c379a000000000000000000000000000000000000000000000000000000000815260040161211b906137a9565b60405180910390fd5b612132600083836001611d86565b61213b81611cea565b1561217b576040517f08c379a0000000000000000000000000000000000000000000000000000000008152600401612172906137a9565b60405180910390fd5b6001600360008473ffffffffffffffffffffffffffffffffffffffff1673ffffffffffffffffffffffffffffffffffffffff16815260200190815260200160002060008282540192505081905550816002600083815260200190815260200160002060006101000a81548173ffffffffffffffffffffffffffffffffffffffff021916908373ffffffffffffffffffffffffffffffffffffffff160217905550808273ffffffffffffffffffffffffffffffffffffffff16600073ffffffffffffffffffffffffffffffffffffffff167fddf252ad1be2c89b69c2b068fc378daa952ba7f163c4a11628f55a4df523b3ef60405160405180910390a4612285600083836001611d8c565b5050565b6000808273ffffffffffffffffffffffffffffffffffffffff163b119050919050565b60405180610100016040528060008152602001606081526020016000815260200160008152602001600081526020016060815260200160608152602001606081525090565b6000604051905090565b600080fd5b600080fd5b60007fffffffff0000000000000000000000000000000000000000000000000000000082169050919050565b61233a81612305565b811461234557600080fd5b50565b60008135905061235781612331565b92915050565b600060208284031215612373576123726122fb565b5b600061238184828501612348565b91505092915050565b60008115159050919050565b61239f8161238a565b82525050565b60006020820190506123ba6000830184612396565b92915050565b600081519050919050565b600082825260208201905092915050565b60005b838110156123fa5780820151818401526020810190506123df565b60008484015250505050565b6000601f19601f8301169050919050565b6000612422826123c0565b61242c81856123cb565b935061243c8185602086016123dc565b61244581612406565b840191505092915050565b6000602082019050818103600083015261246a8184612417565b905092915050565b6000819050919050565b61248581612472565b811461249057600080fd5b50565b6000813590506124a28161247c565b92915050565b6000602082840312156124be576124bd6122fb565b5b60006124cc84828501612493565b91505092915050565b600073ffffffffffffffffffffffffffffffffffffffff82169050919050565b6000612500826124d5565b9050919050565b612510816124f5565b82525050565b600060208201905061252b6000830184612507565b92915050565b61253a816124f5565b811461254557600080fd5b50565b60008135905061255781612531565b92915050565b60008060408385031215612574576125736122fb565b5b600061258285828601612548565b925050602061259385828601612493565b9150509250929050565b600081519050919050565b600082825260208201905092915050565b6000819050602082019050919050565b6125d281612472565b82525050565b60006125e483836125c9565b60208301905092915050565b6000602082019050919050565b60006126088261259d565b61261281856125a8565b935061261d836125b9565b8060005b8381101561264e57815161263588826125d8565b9750612640836125f0565b925050600181019050612621565b5085935050505092915050565b6000602082019050818103600083015261267581846125fd565b905092915050565b61268681612472565b82525050565b60006020820190506126a1600083018461267d565b92915050565b600080604083850312156126be576126bd6122fb565b5b60006126cc85828601612493565b92505060206126dd85828601612493565b9150509250929050565b600080600060608486031215612700576126ff6122fb565b5b600061270e86828701612548565b935050602061271f86828701612548565b925050604061273086828701612493565b9150509250925092565b6000602082840312156127505761274f6122fb565b5b600061275e84828501612548565b91505092915050565b600082825260208201905092915050565b6000612783826123c0565b61278d8185612767565b935061279d8185602086016123dc565b6127a681612406565b840191505092915050565b6000610100830160008301516127ca60008601826125c9565b50602083015184820360208601526127e28282612778565b91505060408301516127f760408601826125c9565b50606083015161280a60608601826125c9565b50608083015161281d60808601826125c9565b5060a083015184820360a08601526128358282612778565b91505060c083015184820360c086015261284f8282612778565b91505060e083015184820360e08601526128698282612778565b9150508091505092915050565b6000602082019050818103600083015261289081846127b1565b905092915050565b600080fd5b600080fd5b7f4e487b7100000000000000000000000000000000000000000000000000000000600052604160045260246000fd5b6128da82612406565b810181811067ffffffffffffffff821117156128f9576128f86128a2565b5b80604052505050565b600061290c6122f1565b905061291882826128d1565b919050565b600067ffffffffffffffff821115612938576129376128a2565b5b61294182612406565b9050602081019050919050565b82818337600083830152505050565b600061297061296b8461291d565b612902565b90508281526020810184848401111561298c5761298b61289d565b5b61299784828561294e565b509392505050565b600082601f8301126129b4576129b3612898565b5b81356129c484826020860161295d565b91505092915050565b60008060008060008060c087890312156129ea576129e96122fb565b5b600087013567ffffffffffffffff811115612a0857612a07612300565b5b612a1489828a0161299f565b9650506020612a2589828a01612493565b9550506040612a3689828a01612493565b945050606087013567ffffffffffffffff811115612a5757612a56612300565b5b612a6389828a0161299f565b935050608087013567ffffffffffffffff811115612a8457612a83612300565b5b612a9089828a0161299f565b92505060a087013567ffffffffffffffff811115612ab157612ab0612300565b5b612abd89828a0161299f565b9150509295509295509295565b60008060408385031215612ae157612ae06122fb565b5b6000612aef85828601612493565b9250506020612b0085828601612548565b9150509250929050565b612b138161238a565b8114612b1e57600080fd5b50565b600081359050612b3081612b0a565b92915050565b60008060408385031215612b4d57612b4c6122fb565b5b6000612b5b85828601612548565b9250506020612b6c85828601612b21565b9150509250929050565b600067ffffffffffffffff821115612b9157612b906128a2565b5b612b9a82612406565b9050602081019050919050565b6000612bba612bb584612b76565b612902565b905082815260208101848484011115612bd657612bd561289d565b5b612be184828561294e565b509392505050565b600082601f830112612bfe57612bfd612898565b5b8135612c0e848260208601612ba7565b91505092915050565b60008060008060808587031215612c3157612c306122fb565b5b6000612c3f87828801612548565b9450506020612c5087828801612548565b9350506040612c6187828801612493565b925050606085013567ffffffffffffffff811115612c8257612c81612300565b5b612c8e87828801612be9565b91505092959194509250565b60008060408385031215612cb157612cb06122fb565b5b6000612cbf85828601612548565b9250506020612cd085828601612548565b9150509250929050565b7f4e487b7100000000000000000000000000000000000000000000000000000000600052602260045260246000fd5b60006002820490506001821680612d2157607f821691505b602082108103612d3457612d33612cda565b5b50919050565b7f4552433732313a20617070726f76616c20746f2063757272656e74206f776e6560008201527f7200000000000000000000000000000000000000000000000000000000000000602082015250565b6000612d966021836123cb565b9150612da182612d3a565b604082019050919050565b60006020820190508181036000830152612dc581612d89565b9050919050565b7f4552433732313a20617070726f76652063616c6c6572206973206e6f7420746f60008201527f6b656e206f776e6572206f7220617070726f76656420666f7220616c6c000000602082015250565b6000612e28603d836123cb565b9150612e3382612dcc565b604082019050919050565b60006020820190508181036000830152612e5781612e1b565b9050919050565b7f4e487b7100000000000000000000000000000000000000000000000000000000600052601160045260246000fd5b6000612e9882612472565b9150612ea383612472565b9250828203905081811115612ebb57612eba612e5e565b5b92915050565b6000612ecc82612472565b91507fffffffffffffffffffffffffffffffffffffffffffffffffffffffffffffffff8203612efe57612efd612e5e565b5b600182019050919050565b7f4552433732313a2063616c6c6572206973206e6f7420746f6b656e206f776e6560008201527f72206f7220617070726f76656400000000000000000000000000000000000000602082015250565b6000612f65602d836123cb565b9150612f7082612f09565b604082019050919050565b60006020820190508181036000830152612f9481612f58565b9050919050565b600081905092915050565b50565b6000612fb6600083612f9b565b9150612fc182612fa6565b600082019050919050565b6000612fd782612fa9565b9150819050919050565b7f4552433732313a20696e76616c696420746f6b656e2049440000000000000000600082015250565b60006130176018836123cb565b915061302282612fe1565b602082019050919050565b600060208201905081810360008301526130468161300a565b9050919050565b7f4552433732313a2061646472657373207a65726f206973206e6f74206120766160008201527f6c6964206f776e65720000000000000000000000000000000000000000000000602082015250565b60006130a96029836123cb565b91506130b48261304d565b604082019050919050565b600060208201905081810360008301526130d88161309c565b9050919050565b60008190508160005260206000209050919050565b60006020601f8301049050919050565b600082821b905092915050565b6000600883026131417fffffffffffffffffffffffffffffffffffffffffffffffffffffffffffffffff82613104565b61314b8683613104565b95508019841693508086168417925050509392505050565b6000819050919050565b600061318861318361317e84612472565b613163565b612472565b9050919050565b6000819050919050565b6131a28361316d565b6131b66131ae8261318f565b848454613111565b825550505050565b600090565b6131cb6131be565b6131d6818484613199565b505050565b5b818110156131fa576131ef6000826131c3565b6001810190506131dc565b5050565b601f82111561323f57613210816130df565b613219846130f4565b81016020851015613228578190505b61323c613234856130f4565b8301826131db565b50505b505050565b600082821c905092915050565b600061326260001984600802613244565b1980831691505092915050565b600061327b8383613251565b9150826002028217905092915050565b613294826123c0565b67ffffffffffffffff8111156132ad576132ac6128a2565b5b6132b78254612d09565b6132c28282856131fe565b600060209050601f8311600181146132f557600084156132e3578287015190505b6132ed858261326f565b865550613355565b601f198416613303866130df565b60005b8281101561332b57848901518255600182019150602085019450602081019050613306565b868310156133485784890151613344601f891682613251565b8355505b6001600288020188555050505b505050505050565b600081905092915050565b6000613373826123c0565b61337d818561335d565b935061338d8185602086016123dc565b80840191505092915050565b60006133a58285613368565b91506133b18284613368565b91508190509392505050565b7f4552433732313a207472616e736665722066726f6d20696e636f72726563742060008201527f6f776e6572000000000000000000000000000000000000000000000000000000602082015250565b60006134196025836123cb565b9150613424826133bd565b604082019050919050565b600060208201905081810360008301526134488161340c565b9050919050565b7f4552433732313a207472616e7366657220746f20746865207a65726f2061646460008201527f7265737300000000000000000000000000000000000000000000000000000000602082015250565b60006134ab6024836123cb565b91506134b68261344f565b604082019050919050565b600060208201905081810360008301526134da8161349e565b9050919050565b7f4552433732313a20617070726f766520746f2063616c6c657200000000000000600082015250565b60006135176019836123cb565b9150613522826134e1565b602082019050919050565b600060208201905081810360008301526135468161350a565b9050919050565b7f4552433732313a207472616e7366657220746f206e6f6e20455243373231526560008201527f63656976657220696d706c656d656e7465720000000000000000000000000000602082015250565b60006135a96032836123cb565b91506135b48261354d565b604082019050919050565b600060208201905081810360008301526135d88161359c565b9050919050565b7f4e487b7100000000000000000000000000000000000000000000000000000000600052601260045260246000fd5b600081519050919050565b600082825260208201905092915050565b60006136358261360e565b61363f8185613619565b935061364f8185602086016123dc565b61365881612406565b840191505092915050565b60006080820190506136786000830187612507565b6136856020830186612507565b613692604083018561267d565b81810360608301526136a4818461362a565b905095945050505050565b6000815190506136be81612331565b92915050565b6000602082840312156136da576136d96122fb565b5b60006136e8848285016136af565b91505092915050565b7f4552433732313a206d696e7420746f20746865207a65726f2061646472657373600082015250565b60006137276020836123cb565b9150613732826136f1565b602082019050919050565b600060208201905081810360008301526137568161371a565b9050919050565b7f4552433732313a20746f6b656e20616c7265616479206d696e74656400000000600082015250565b6000613793601c836123cb565b915061379e8261375d565b602082019050919050565b600060208201905081810360008301526137c281613786565b905091905056fea26469706673582212203a4a8bce9a136fd9109964a74c7c4cdaf4ad19d40d5fad16ae228951e95ebb7d64736f6c63430008110033",
  "linkReferences": {},
  "deployedLinkReferences": {}
}