{
  "_format": "hh-sol-artifact-1",
  "contractName": "TokenMaster",
  "sourceName": "contracts/TokenMaster.sol",
  "abi": [
    {
      "inputs": [
        {
          "internalType": "string",
          "name": "_name",
          "type": "string"
        },
        {
          "internalType": "string",
          "name": "_symbol",
          "type": "string"
        }
      ],
      "stateMutability": "nonpayable",
      "type": "constructor"
    },
    {
      "anonymous": false,
      "inputs": [
        {
          "indexed": true,
          "internalType": "address",
          "name": "owner",
          "type": "address"
        },
        {
          "indexed": true,
          "internalType": "address",
          "name": "approved",
          "type": "address"
        },
        {
          "indexed": true,
          "internalType": "uint256",
          "name": "tokenId",
          "type": "uint256"
        }
      ],
      "name": "Approval",
      "type": "event"
    },
    {
      "anonymous": false,
      "inputs": [
        {
          "indexed": true,
          "internalType": "address",
          "name": "owner",
          "type": "address"
        },
        {
          "indexed": true,
          "internalType": "address",
          "name": "operator",
          "type": "address"
        },
        {
          "indexed": false,
          "internalType": "bool",
          "name": "approved",
          "type": "bool"
        }
      ],
      "name": "ApprovalForAll",
      "type": "event"
    },
    {
      "anonymous": false,
      "inputs": [
        {
          "indexed": true,
          "internalType": "address",
          "name": "from",
          "type": "address"
        },
        {
          "indexed": true,
          "internalType": "address",
          "name": "to",
          "type": "address"
        },
        {
          "indexed": true,
          "internalType": "uint256",
          "name": "tokenId",
          "type": "uint256"
        }
      ],
      "name": "Transfer",
      "type": "event"
    },
    {
      "inputs": [
        {
          "internalType": "address",
          "name": "to",
          "type": "address"
        },
        {
          "internalType": "uint256",
          "name": "tokenId",
          "type": "uint256"
        }
      ],
      "name": "approve",
      "outputs": [],
      "stateMutability": "nonpayable",
      "type": "function"
    },
    {
      "inputs": [
        {
          "internalType": "address",
          "name": "owner",
          "type": "address"
        }
      ],
      "name": "balanceOf",
      "outputs": [
        {
          "internalType": "uint256",
          "name": "",
          "type": "uint256"
        }
      ],
      "stateMutability": "view",
      "type": "function"
    },
    {
      "inputs": [
        {
          "internalType": "uint256",
          "name": "tokenId",
          "type": "uint256"
        }
      ],
      "name": "getApproved",
      "outputs": [
        {
          "internalType": "address",
          "name": "",
          "type": "address"
        }
      ],
      "stateMutability": "view",
      "type": "function"
    },
    {
      "inputs": [
        {
          "internalType": "uint256",
          "name": "_id",
          "type": "uint256"
        }
      ],
      "name": "getOccasion",
      "outputs": [
        {
          "components": [
            {
              "internalType": "uint256",
              "name": "id",
              "type": "uint256"
            },
            {
              "internalType": "string",
              "name": "name",
              "type": "string"
            },
            {
              "internalType": "uint256",
              "name": "cost",
              "type": "uint256"
            },
            {
              "internalType": "uint256",
              "name": "tickets",
              "type": "uint256"
            },
            {
              "internalType": "uint256",
              "name": "maxTickets",
              "type": "uint256"
            },
            {
              "internalType": "string",
              "name": "date",
              "type": "string"
            },
            {
              "internalType": "string",
              "name": "time",
              "type": "string"
            },
            {
              "internalType": "string",
              "name": "location",
              "type": "string"
            }
          ],
          "internalType": "struct TokenMaster.Occasion",
          "name": "",
          "type": "tuple"
        }
      ],
      "stateMutability": "view",
      "type": "function"
    },
    {
      "inputs": [
        {
          "internalType": "address",
          "name": "owner",
          "type": "address"
        },
        {
          "internalType": "address",
          "name": "operator",
          "type": "address"
        }
      ],
      "name": "isApprovedForAll",
      "outputs": [
        {
          "internalType": "bool",
          "name": "",
          "type": "bool"
        }
      ],
      "stateMutability": "view",
      "type": "function"
    },
    {
      "inputs": [
        {
          "internalType": "string",
          "name": "_name",
          "type": "string"
        },
        {
          "internalType": "uint256",
          "name": "_cost",
          "type": "uint256"
        },
        {
          "internalType": "uint256",
          "name": "_maxTicket",
          "type": "uint256"
        },
        {
          "internalType": "string",
          "name": "_date",
          "type": "string"
        },
        {
          "internalType": "string",
          "name": "_time",
          "type": "string"
        },
        {
          "internalType": "string",
          "name": "_location",
          "type": "string"
        }
      ],
      "name": "list",
      "outputs": [],
      "stateMutability": "nonpayable",
      "type": "function"
    },
    {
      "inputs": [],
      "name": "name",
      "outputs": [
        {
          "internalType": "string",
          "name": "",
          "type": "string"
        }
      ],
      "stateMutability": "view",
      "type": "function"
    },
    {
      "inputs": [],
      "name": "owner",
      "outputs": [
        {
          "internalType": "address",
          "name": "",
          "type": "address"
        }
      ],
      "stateMutability": "view",
      "type": "function"
    },
    {
      "inputs": [
        {
          "internalType": "uint256",
          "name": "tokenId",
          "type": "uint256"
        }
      ],
      "name": "ownerOf",
      "outputs": [
        {
          "internalType": "address",
          "name": "",
          "type": "address"
        }
      ],
      "stateMutability": "view",
      "type": "function"
    },
    {
      "inputs": [
        {
          "internalType": "address",
          "name": "from",
          "type": "address"
        },
        {
          "internalType": "address",
          "name": "to",
          "type": "address"
        },
        {
          "internalType": "uint256",
          "name": "tokenId",
          "type": "uint256"
        }
      ],
      "name": "safeTransferFrom",
      "outputs": [],
      "stateMutability": "nonpayable",
      "type": "function"
    },
    {
      "inputs": [
        {
          "internalType": "address",
          "name": "from",
          "type": "address"
        },
        {
          "internalType": "address",
          "name": "to",
          "type": "address"
        },
        {
          "internalType": "uint256",
          "name": "tokenId",
          "type": "uint256"
        },
        {
          "internalType": "bytes",
          "name": "data",
          "type": "bytes"
        }
      ],
      "name": "safeTransferFrom",
      "outputs": [],
      "stateMutability": "nonpayable",
      "type": "function"
    },
    {
      "inputs": [
        {
          "internalType": "address",
          "name": "operator",
          "type": "address"
        },
        {
          "internalType": "bool",
          "name": "approved",
          "type": "bool"
        }
      ],
      "name": "setApprovalForAll",
      "outputs": [],
      "stateMutability": "nonpayable",
      "type": "function"
    },
    {
      "inputs": [
        {
          "internalType": "bytes4",
          "name": "interfaceId",
          "type": "bytes4"
        }
      ],
      "name": "supportsInterface",
      "outputs": [
        {
          "internalType": "bool",
          "name": "",
          "type": "bool"
        }
      ],
      "stateMutability": "view",
      "type": "function"
    },
    {
      "inputs": [],
      "name": "symbol",
      "outputs": [
        {
          "internalType": "string",
          "name": "",
          "type": "string"
        }
      ],
      "stateMutability": "view",
      "type": "function"
    },
    {
      "inputs": [
        {
          "internalType": "uint256",
          "name": "tokenId",
          "type": "uint256"
        }
      ],
      "name": "tokenURI",
      "outputs": [
        {
          "internalType": "string",
          "name": "",
          "type": "string"
        }
      ],
      "stateMutability": "view",
      "type": "function"
    },
    {
      "inputs": [],
      "name": "totalOccasions",
      "outputs": [
        {
          "internalType": "uint256",
          "name": "",
          "type": "uint256"
        }
      ],
      "stateMutability": "view",
      "type": "function"
    },
    {
      "inputs": [
        {
          "internalType": "address",
          "name": "from",
          "type": "address"
        },
        {
          "internalType": "address",
          "name": "to",
          "type": "address"
        },
        {
          "internalType": "uint256",
          "name": "tokenId",
          "type": "uint256"
        }
      ],
      "name": "transferFrom",
      "outputs": [],
      "stateMutability": "nonpayable",
      "type": "function"
    }
  ],
  "bytecode": "0x60806040523480156200001157600080fd5b50604051620032163803806200321683398181016040528101906200003791906200023b565b818181600090816200004a91906200050b565b5080600190816200005c91906200050b565b50505033600660006101000a81548173ffffffffffffffffffffffffffffffffffffffff021916908373ffffffffffffffffffffffffffffffffffffffff1602179055505050620005f2565b6000604051905090565b600080fd5b600080fd5b600080fd5b600080fd5b6000601f19601f8301169050919050565b7f4e487b7100000000000000000000000000000000000000000000000000000000600052604160045260246000fd5b6200011182620000c6565b810181811067ffffffffffffffff82111715620001335762000132620000d7565b5b80604052505050565b600062000148620000a8565b905062000156828262000106565b919050565b600067ffffffffffffffff821115620001795762000178620000d7565b5b6200018482620000c6565b9050602081019050919050565b60005b83811015620001b157808201518184015260208101905062000194565b60008484015250505050565b6000620001d4620001ce846200015b565b6200013c565b905082815260208101848484011115620001f357620001f2620000c1565b5b6200020084828562000191565b509392505050565b600082601f83011262000220576200021f620000bc565b5b815162000232848260208601620001bd565b91505092915050565b60008060408385031215620002555762000254620000b2565b5b600083015167ffffffffffffffff811115620002765762000275620000b7565b5b620002848582860162000208565b925050602083015167ffffffffffffffff811115620002a857620002a7620000b7565b5b620002b68582860162000208565b9150509250929050565b600081519050919050565b7f4e487b7100000000000000000000000000000000000000000000000000000000600052602260045260246000fd5b600060028204905060018216806200031357607f821691505b602082108103620003295762000328620002cb565b5b50919050565b60008190508160005260206000209050919050565b60006020601f8301049050919050565b600082821b905092915050565b600060088302620003937fffffffffffffffffffffffffffffffffffffffffffffffffffffffffffffffff8262000354565b6200039f868362000354565b95508019841693508086168417925050509392505050565b6000819050919050565b6000819050919050565b6000620003ec620003e6620003e084620003b7565b620003c1565b620003b7565b9050919050565b6000819050919050565b6200040883620003cb565b620004206200041782620003f3565b84845462000361565b825550505050565b600090565b6200043762000428565b62000444818484620003fd565b505050565b5b818110156200046c57620004606000826200042d565b6001810190506200044a565b5050565b601f821115620004bb5762000485816200032f565b620004908462000344565b81016020851015620004a0578190505b620004b8620004af8562000344565b83018262000449565b50505b505050565b600082821c905092915050565b6000620004e060001984600802620004c0565b1980831691505092915050565b6000620004fb8383620004cd565b9150826002028217905092915050565b6200051682620002c0565b67ffffffffffffffff811115620005325762000531620000d7565b5b6200053e8254620002fa565b6200054b82828562000470565b600060209050601f8311600181146200058357600084156200056e578287015190505b6200057a8582620004ed565b865550620005ea565b601f19841662000593866200032f565b60005b82811015620005bd5784890151825560018201915060208501945060208101905062000596565b86831015620005dd5784890151620005d9601f891682620004cd565b8355505b6001600288020188555050505b505050505050565b612c1480620006026000396000f3fe608060405234801561001057600080fd5b506004361061010b5760003560e01c806374bc8656116100a25780639a382f0f116100715780639a382f0f146102cc578063a22cb465146102e8578063b88d4fde14610304578063c87b56dd14610320578063e985e9c5146103505761010b565b806374bc8656146102425780638da5cb5b14610272578063953865c11461029057806395d89b41146102ae5761010b565b806323b872dd116100de57806323b872dd146101aa57806342842e0e146101c65780636352211e146101e257806370a08231146102125761010b565b806301ffc9a71461011057806306fdde0314610140578063081812fc1461015e578063095ea7b31461018e575b600080fd5b61012a60048036038101906101259190611a15565b610380565b6040516101379190611a5d565b60405180910390f35b610148610462565b6040516101559190611b08565b60405180910390f35b61017860048036038101906101739190611b60565b6104f4565b6040516101859190611bce565b60405180910390f35b6101a860048036038101906101a39190611c15565b61053a565b005b6101c460048036038101906101bf9190611c55565b610651565b005b6101e060048036038101906101db9190611c55565b6106b1565b005b6101fc60048036038101906101f79190611b60565b6106d1565b6040516102099190611bce565b60405180910390f35b61022c60048036038101906102279190611ca8565b610757565b6040516102399190611ce4565b60405180910390f35b61025c60048036038101906102579190611b60565b61080e565b6040516102699190611e1d565b60405180910390f35b61027a610aac565b6040516102879190611bce565b60405180910390f35b610298610ad2565b6040516102a59190611ce4565b60405180910390f35b6102b6610ad8565b6040516102c39190611b08565b60405180910390f35b6102e660048036038101906102e19190611f74565b610b6a565b005b61030260048036038101906102fd919061209d565b610cb8565b005b61031e6004803603810190610319919061217e565b610cce565b005b61033a60048036038101906103359190611b60565b610d30565b6040516103479190611b08565b60405180910390f35b61036a60048036038101906103659190612201565b610d98565b6040516103779190611a5d565b60405180910390f35b60007f80ac58cd000000000000000000000000000000000000000000000000000000007bffffffffffffffffffffffffffffffffffffffffffffffffffffffff1916827bffffffffffffffffffffffffffffffffffffffffffffffffffffffff1916148061044b57507f5b5e139f000000000000000000000000000000000000000000000000000000007bffffffffffffffffffffffffffffffffffffffffffffffffffffffff1916827bffffffffffffffffffffffffffffffffffffffffffffffffffffffff1916145b8061045b575061045a82610e2c565b5b9050919050565b60606000805461047190612270565b80601f016020809104026020016040519081016040528092919081815260200182805461049d90612270565b80156104ea5780601f106104bf576101008083540402835291602001916104ea565b820191906000526020600020905b8154815290600101906020018083116104cd57829003601f168201915b5050505050905090565b60006104ff82610e96565b6004600083815260200190815260200160002060009054906101000a900473ffffffffffffffffffffffffffffffffffffffff169050919050565b6000610545826106d1565b90508073ffffffffffffffffffffffffffffffffffffffff168373ffffffffffffffffffffffffffffffffffffffff16036105b5576040517f08c379a00000000000000000000000000000000000000000000000000000000081526004016105ac90612313565b60405180910390fd5b8073ffffffffffffffffffffffffffffffffffffffff166105d4610ee1565b73ffffffffffffffffffffffffffffffffffffffff1614806106035750610602816105fd610ee1565b610d98565b5b610642576040517f08c379a0000000000000000000000000000000000000000000000000000000008152600401610639906123a5565b60405180910390fd5b61064c8383610ee9565b505050565b61066261065c610ee1565b82610fa2565b6106a1576040517f08c379a000000000000000000000000000000000000000000000000000000000815260040161069890612437565b60405180910390fd5b6106ac838383611037565b505050565b6106cc83838360405180602001604052806000815250610cce565b505050565b6000806106dd83611330565b9050600073ffffffffffffffffffffffffffffffffffffffff168173ffffffffffffffffffffffffffffffffffffffff160361074e576040517f08c379a0000000000000000000000000000000000000000000000000000000008152600401610745906124a3565b60405180910390fd5b80915050919050565b60008073ffffffffffffffffffffffffffffffffffffffff168273ffffffffffffffffffffffffffffffffffffffff16036107c7576040517f08c379a00000000000000000000000000000000000000000000000000000000081526004016107be90612535565b60405180910390fd5b600360008373ffffffffffffffffffffffffffffffffffffffff1673ffffffffffffffffffffffffffffffffffffffff168152602001908152602001600020549050919050565b610816611964565b60086000838152602001908152602001600020604051806101000160405290816000820154815260200160018201805461084f90612270565b80601f016020809104026020016040519081016040528092919081815260200182805461087b90612270565b80156108c85780601f1061089d576101008083540402835291602001916108c8565b820191906000526020600020905b8154815290600101906020018083116108ab57829003601f168201915b505050505081526020016002820154815260200160038201548152602001600482015481526020016005820180546108ff90612270565b80601f016020809104026020016040519081016040528092919081815260200182805461092b90612270565b80156109785780601f1061094d57610100808354040283529160200191610978565b820191906000526020600020905b81548152906001019060200180831161095b57829003601f168201915b5050505050815260200160068201805461099190612270565b80601f01602080910402602001604051908101604052809291908181526020018280546109bd90612270565b8015610a0a5780601f106109df57610100808354040283529160200191610a0a565b820191906000526020600020905b8154815290600101906020018083116109ed57829003601f168201915b50505050508152602001600782018054610a2390612270565b80601f0160208091040260200160405190810160405280929190818152602001828054610a4f90612270565b8015610a9c5780601f10610a7157610100808354040283529160200191610a9c565b820191906000526020600020905b815481529060010190602001808311610a7f57829003601f168201915b5050505050815250509050919050565b600660009054906101000a900473ffffffffffffffffffffffffffffffffffffffff1681565b60075481565b606060018054610ae790612270565b80601f0160208091040260200160405190810160405280929190818152602001828054610b1390612270565b8015610b605780601f10610b3557610100808354040283529160200191610b60565b820191906000526020600020905b815481529060010190602001808311610b4357829003601f168201915b5050505050905090565b600660009054906101000a900473ffffffffffffffffffffffffffffffffffffffff1673ffffffffffffffffffffffffffffffffffffffff163373ffffffffffffffffffffffffffffffffffffffff1614610bc457600080fd5b60076000815480929190610bd790612584565b9190505550604051806101000160405280600754815260200187815260200186815260200185815260200185815260200184815260200183815260200182815250600860006007548152602001908152602001600020600082015181600001556020820151816001019081610c4c9190612778565b5060408201518160020155606082015181600301556080820151816004015560a0820151816005019081610c809190612778565b5060c0820151816006019081610c969190612778565b5060e0820151816007019081610cac9190612778565b50905050505050505050565b610cca610cc3610ee1565b838361136d565b5050565b610cdf610cd9610ee1565b83610fa2565b610d1e576040517f08c379a0000000000000000000000000000000000000000000000000000000008152600401610d1590612437565b60405180910390fd5b610d2a848484846114d9565b50505050565b6060610d3b82610e96565b6000610d45611535565b90506000815111610d655760405180602001604052806000815250610d90565b80610d6f8461154c565b604051602001610d80929190612886565b6040516020818303038152906040525b915050919050565b6000600560008473ffffffffffffffffffffffffffffffffffffffff1673ffffffffffffffffffffffffffffffffffffffff16815260200190815260200160002060008373ffffffffffffffffffffffffffffffffffffffff1673ffffffffffffffffffffffffffffffffffffffff16815260200190815260200160002060009054906101000a900460ff16905092915050565b60007f01ffc9a7000000000000000000000000000000000000000000000000000000007bffffffffffffffffffffffffffffffffffffffffffffffffffffffff1916827bffffffffffffffffffffffffffffffffffffffffffffffffffffffff1916149050919050565b610e9f8161161a565b610ede576040517f08c379a0000000000000000000000000000000000000000000000000000000008152600401610ed5906124a3565b60405180910390fd5b50565b600033905090565b816004600083815260200190815260200160002060006101000a81548173ffffffffffffffffffffffffffffffffffffffff021916908373ffffffffffffffffffffffffffffffffffffffff160217905550808273ffffffffffffffffffffffffffffffffffffffff16610f5c836106d1565b73ffffffffffffffffffffffffffffffffffffffff167f8c5be1e5ebec7d5bd14f71427d1e84f3dd0314c0f7b2291e5b200ac8c7c3b92560405160405180910390a45050565b600080610fae836106d1565b90508073ffffffffffffffffffffffffffffffffffffffff168473ffffffffffffffffffffffffffffffffffffffff161480610ff05750610fef8185610d98565b5b8061102e57508373ffffffffffffffffffffffffffffffffffffffff16611016846104f4565b73ffffffffffffffffffffffffffffffffffffffff16145b91505092915050565b8273ffffffffffffffffffffffffffffffffffffffff16611057826106d1565b73ffffffffffffffffffffffffffffffffffffffff16146110ad576040517f08c379a00000000000000000000000000000000000000000000000000000000081526004016110a49061291c565b60405180910390fd5b600073ffffffffffffffffffffffffffffffffffffffff168273ffffffffffffffffffffffffffffffffffffffff160361111c576040517f08c379a0000000000000000000000000000000000000000000000000000000008152600401611113906129ae565b60405180910390fd5b611129838383600161165b565b8273ffffffffffffffffffffffffffffffffffffffff16611149826106d1565b73ffffffffffffffffffffffffffffffffffffffff161461119f576040517f08c379a00000000000000000000000000000000000000000000000000000000081526004016111969061291c565b60405180910390fd5b6004600082815260200190815260200160002060006101000a81549073ffffffffffffffffffffffffffffffffffffffff02191690556001600360008573ffffffffffffffffffffffffffffffffffffffff1673ffffffffffffffffffffffffffffffffffffffff168152602001908152602001600020600082825403925050819055506001600360008473ffffffffffffffffffffffffffffffffffffffff1673ffffffffffffffffffffffffffffffffffffffff16815260200190815260200160002060008282540192505081905550816002600083815260200190815260200160002060006101000a81548173ffffffffffffffffffffffffffffffffffffffff021916908373ffffffffffffffffffffffffffffffffffffffff160217905550808273ffffffffffffffffffffffffffffffffffffffff168473ffffffffffffffffffffffffffffffffffffffff167fddf252ad1be2c89b69c2b068fc378daa952ba7f163c4a11628f55a4df523b3ef60405160405180910390a461132b8383836001611661565b505050565b60006002600083815260200190815260200160002060009054906101000a900473ffffffffffffffffffffffffffffffffffffffff169050919050565b8173ffffffffffffffffffffffffffffffffffffffff168373ffffffffffffffffffffffffffffffffffffffff16036113db576040517f08c379a00000000000000000000000000000000000000000000000000000000081526004016113d290612a1a565b60405180910390fd5b80600560008573ffffffffffffffffffffffffffffffffffffffff1673ffffffffffffffffffffffffffffffffffffffff16815260200190815260200160002060008473ffffffffffffffffffffffffffffffffffffffff1673ffffffffffffffffffffffffffffffffffffffff16815260200190815260200160002060006101000a81548160ff0219169083151502179055508173ffffffffffffffffffffffffffffffffffffffff168373ffffffffffffffffffffffffffffffffffffffff167f17307eab39ab6107e8899845ad3d59bd9653f200f220920489ca2b5937696c31836040516114cc9190611a5d565b60405180910390a3505050565b6114e4848484611037565b6114f084848484611667565b61152f576040517f08c379a000000000000000000000000000000000000000000000000000000000815260040161152690612aac565b60405180910390fd5b50505050565b606060405180602001604052806000815250905090565b60606000600161155b846117ee565b01905060008167ffffffffffffffff81111561157a57611579611e49565b5b6040519080825280601f01601f1916602001820160405280156115ac5781602001600182028036833780820191505090505b509050600082602001820190505b60011561160f578080600190039150507f3031323334353637383961626364656600000000000000000000000000000000600a86061a8153600a858161160357611602612acc565b5b049450600085036115ba575b819350505050919050565b60008073ffffffffffffffffffffffffffffffffffffffff1661163c83611330565b73ffffffffffffffffffffffffffffffffffffffff1614159050919050565b50505050565b50505050565b60006116888473ffffffffffffffffffffffffffffffffffffffff16611941565b156117e1578373ffffffffffffffffffffffffffffffffffffffff1663150b7a026116b1610ee1565b8786866040518563ffffffff1660e01b81526004016116d39493929190612b50565b6020604051808303816000875af192505050801561170f57506040513d601f19601f8201168201806040525081019061170c9190612bb1565b60015b611791573d806000811461173f576040519150601f19603f3d011682016040523d82523d6000602084013e611744565b606091505b506000815103611789576040517f08c379a000000000000000000000000000000000000000000000000000000000815260040161178090612aac565b60405180910390fd5b805181602001fd5b63150b7a0260e01b7bffffffffffffffffffffffffffffffffffffffffffffffffffffffff1916817bffffffffffffffffffffffffffffffffffffffffffffffffffffffff1916149150506117e6565b600190505b949350505050565b600080600090507a184f03e93ff9f4daa797ed6e38ed64bf6a1f010000000000000000831061184c577a184f03e93ff9f4daa797ed6e38ed64bf6a1f010000000000000000838161184257611841612acc565b5b0492506040810190505b6d04ee2d6d415b85acef81000000008310611889576d04ee2d6d415b85acef8100000000838161187f5761187e612acc565b5b0492506020810190505b662386f26fc1000083106118b857662386f26fc1000083816118ae576118ad612acc565b5b0492506010810190505b6305f5e10083106118e1576305f5e10083816118d7576118d6612acc565b5b0492506008810190505b61271083106119065761271083816118fc576118fb612acc565b5b0492506004810190505b60648310611929576064838161191f5761191e612acc565b5b0492506002810190505b600a8310611938576001810190505b80915050919050565b6000808273ffffffffffffffffffffffffffffffffffffffff163b119050919050565b60405180610100016040528060008152602001606081526020016000815260200160008152602001600081526020016060815260200160608152602001606081525090565b6000604051905090565b600080fd5b600080fd5b60007fffffffff0000000000000000000000000000000000000000000000000000000082169050919050565b6119f2816119bd565b81146119fd57600080fd5b50565b600081359050611a0f816119e9565b92915050565b600060208284031215611a2b57611a2a6119b3565b5b6000611a3984828501611a00565b91505092915050565b60008115159050919050565b611a5781611a42565b82525050565b6000602082019050611a726000830184611a4e565b92915050565b600081519050919050565b600082825260208201905092915050565b60005b83811015611ab2578082015181840152602081019050611a97565b60008484015250505050565b6000601f19601f8301169050919050565b6000611ada82611a78565b611ae48185611a83565b9350611af4818560208601611a94565b611afd81611abe565b840191505092915050565b60006020820190508181036000830152611b228184611acf565b905092915050565b6000819050919050565b611b3d81611b2a565b8114611b4857600080fd5b50565b600081359050611b5a81611b34565b92915050565b600060208284031215611b7657611b756119b3565b5b6000611b8484828501611b4b565b91505092915050565b600073ffffffffffffffffffffffffffffffffffffffff82169050919050565b6000611bb882611b8d565b9050919050565b611bc881611bad565b82525050565b6000602082019050611be36000830184611bbf565b92915050565b611bf281611bad565b8114611bfd57600080fd5b50565b600081359050611c0f81611be9565b92915050565b60008060408385031215611c2c57611c2b6119b3565b5b6000611c3a85828601611c00565b9250506020611c4b85828601611b4b565b9150509250929050565b600080600060608486031215611c6e57611c6d6119b3565b5b6000611c7c86828701611c00565b9350506020611c8d86828701611c00565b9250506040611c9e86828701611b4b565b9150509250925092565b600060208284031215611cbe57611cbd6119b3565b5b6000611ccc84828501611c00565b91505092915050565b611cde81611b2a565b82525050565b6000602082019050611cf96000830184611cd5565b92915050565b611d0881611b2a565b82525050565b600082825260208201905092915050565b6000611d2a82611a78565b611d348185611d0e565b9350611d44818560208601611a94565b611d4d81611abe565b840191505092915050565b600061010083016000830151611d716000860182611cff565b5060208301518482036020860152611d898282611d1f565b9150506040830151611d9e6040860182611cff565b506060830151611db16060860182611cff565b506080830151611dc46080860182611cff565b5060a083015184820360a0860152611ddc8282611d1f565b91505060c083015184820360c0860152611df68282611d1f565b91505060e083015184820360e0860152611e108282611d1f565b9150508091505092915050565b60006020820190508181036000830152611e378184611d58565b905092915050565b600080fd5b600080fd5b7f4e487b7100000000000000000000000000000000000000000000000000000000600052604160045260246000fd5b611e8182611abe565b810181811067ffffffffffffffff82111715611ea057611e9f611e49565b5b80604052505050565b6000611eb36119a9565b9050611ebf8282611e78565b919050565b600067ffffffffffffffff821115611edf57611ede611e49565b5b611ee882611abe565b9050602081019050919050565b82818337600083830152505050565b6000611f17611f1284611ec4565b611ea9565b905082815260208101848484011115611f3357611f32611e44565b5b611f3e848285611ef5565b509392505050565b600082601f830112611f5b57611f5a611e3f565b5b8135611f6b848260208601611f04565b91505092915050565b60008060008060008060c08789031215611f9157611f906119b3565b5b600087013567ffffffffffffffff811115611faf57611fae6119b8565b5b611fbb89828a01611f46565b9650506020611fcc89828a01611b4b565b9550506040611fdd89828a01611b4b565b945050606087013567ffffffffffffffff811115611ffe57611ffd6119b8565b5b61200a89828a01611f46565b935050608087013567ffffffffffffffff81111561202b5761202a6119b8565b5b61203789828a01611f46565b92505060a087013567ffffffffffffffff811115612058576120576119b8565b5b61206489828a01611f46565b9150509295509295509295565b61207a81611a42565b811461208557600080fd5b50565b60008135905061209781612071565b92915050565b600080604083850312156120b4576120b36119b3565b5b60006120c285828601611c00565b92505060206120d385828601612088565b9150509250929050565b600067ffffffffffffffff8211156120f8576120f7611e49565b5b61210182611abe565b9050602081019050919050565b600061212161211c846120dd565b611ea9565b90508281526020810184848401111561213d5761213c611e44565b5b612148848285611ef5565b509392505050565b600082601f83011261216557612164611e3f565b5b813561217584826020860161210e565b91505092915050565b60008060008060808587031215612198576121976119b3565b5b60006121a687828801611c00565b94505060206121b787828801611c00565b93505060406121c887828801611b4b565b925050606085013567ffffffffffffffff8111156121e9576121e86119b8565b5b6121f587828801612150565b91505092959194509250565b60008060408385031215612218576122176119b3565b5b600061222685828601611c00565b925050602061223785828601611c00565b9150509250929050565b7f4e487b7100000000000000000000000000000000000000000000000000000000600052602260045260246000fd5b6000600282049050600182168061228857607f821691505b60208210810361229b5761229a612241565b5b50919050565b7f4552433732313a20617070726f76616c20746f2063757272656e74206f776e6560008201527f7200000000000000000000000000000000000000000000000000000000000000602082015250565b60006122fd602183611a83565b9150612308826122a1565b604082019050919050565b6000602082019050818103600083015261232c816122f0565b9050919050565b7f4552433732313a20617070726f76652063616c6c6572206973206e6f7420746f60008201527f6b656e206f776e6572206f7220617070726f76656420666f7220616c6c000000602082015250565b600061238f603d83611a83565b915061239a82612333565b604082019050919050565b600060208201905081810360008301526123be81612382565b9050919050565b7f4552433732313a2063616c6c6572206973206e6f7420746f6b656e206f776e6560008201527f72206f7220617070726f76656400000000000000000000000000000000000000602082015250565b6000612421602d83611a83565b915061242c826123c5565b604082019050919050565b6000602082019050818103600083015261245081612414565b9050919050565b7f4552433732313a20696e76616c696420746f6b656e2049440000000000000000600082015250565b600061248d601883611a83565b915061249882612457565b602082019050919050565b600060208201905081810360008301526124bc81612480565b9050919050565b7f4552433732313a2061646472657373207a65726f206973206e6f74206120766160008201527f6c6964206f776e65720000000000000000000000000000000000000000000000602082015250565b600061251f602983611a83565b915061252a826124c3565b604082019050919050565b6000602082019050818103600083015261254e81612512565b9050919050565b7f4e487b7100000000000000000000000000000000000000000000000000000000600052601160045260246000fd5b600061258f82611b2a565b91507fffffffffffffffffffffffffffffffffffffffffffffffffffffffffffffffff82036125c1576125c0612555565b5b600182019050919050565b60008190508160005260206000209050919050565b60006020601f8301049050919050565b600082821b905092915050565b60006008830261262e7fffffffffffffffffffffffffffffffffffffffffffffffffffffffffffffffff826125f1565b61263886836125f1565b95508019841693508086168417925050509392505050565b6000819050919050565b600061267561267061266b84611b2a565b612650565b611b2a565b9050919050565b6000819050919050565b61268f8361265a565b6126a361269b8261267c565b8484546125fe565b825550505050565b600090565b6126b86126ab565b6126c3818484612686565b505050565b5b818110156126e7576126dc6000826126b0565b6001810190506126c9565b5050565b601f82111561272c576126fd816125cc565b612706846125e1565b81016020851015612715578190505b612729612721856125e1565b8301826126c8565b50505b505050565b600082821c905092915050565b600061274f60001984600802612731565b1980831691505092915050565b6000612768838361273e565b9150826002028217905092915050565b61278182611a78565b67ffffffffffffffff81111561279a57612799611e49565b5b6127a48254612270565b6127af8282856126eb565b600060209050601f8311600181146127e257600084156127d0578287015190505b6127da858261275c565b865550612842565b601f1984166127f0866125cc565b60005b82811015612818578489015182556001820191506020850194506020810190506127f3565b868310156128355784890151612831601f89168261273e565b8355505b6001600288020188555050505b505050505050565b600081905092915050565b600061286082611a78565b61286a818561284a565b935061287a818560208601611a94565b80840191505092915050565b60006128928285612855565b915061289e8284612855565b91508190509392505050565b7f4552433732313a207472616e736665722066726f6d20696e636f72726563742060008201527f6f776e6572000000000000000000000000000000000000000000000000000000602082015250565b6000612906602583611a83565b9150612911826128aa565b604082019050919050565b60006020820190508181036000830152612935816128f9565b9050919050565b7f4552433732313a207472616e7366657220746f20746865207a65726f2061646460008201527f7265737300000000000000000000000000000000000000000000000000000000602082015250565b6000612998602483611a83565b91506129a38261293c565b604082019050919050565b600060208201905081810360008301526129c78161298b565b9050919050565b7f4552433732313a20617070726f766520746f2063616c6c657200000000000000600082015250565b6000612a04601983611a83565b9150612a0f826129ce565b602082019050919050565b60006020820190508181036000830152612a33816129f7565b9050919050565b7f4552433732313a207472616e7366657220746f206e6f6e20455243373231526560008201527f63656976657220696d706c656d656e7465720000000000000000000000000000602082015250565b6000612a96603283611a83565b9150612aa182612a3a565b604082019050919050565b60006020820190508181036000830152612ac581612a89565b9050919050565b7f4e487b7100000000000000000000000000000000000000000000000000000000600052601260045260246000fd5b600081519050919050565b600082825260208201905092915050565b6000612b2282612afb565b612b2c8185612b06565b9350612b3c818560208601611a94565b612b4581611abe565b840191505092915050565b6000608082019050612b656000830187611bbf565b612b726020830186611bbf565b612b7f6040830185611cd5565b8181036060830152612b918184612b17565b905095945050505050565b600081519050612bab816119e9565b92915050565b600060208284031215612bc757612bc66119b3565b5b6000612bd584828501612b9c565b9150509291505056fea264697066735822122061a18b337d6e7a680da027da0e0b9f63b27ec49511736587f5bf5403a195447364736f6c63430008110033",
  "linkReferences": {},
  "deployedLinkReferences": {}
}