{
  "_format": "hh-sol-artifact-1",
  "contractName": "TokenMaster",
  "sourceName": "contracts/TokenMaster.sol",
  "abi": [
    {
      "inputs": [
        {
          "internalType": "string",
          "name": "_name",
          "type": "string"
        },
        {
          "internalType": "string",
          "name": "_symbol",
          "type": "string"
        }
      ],
      "stateMutability": "nonpayable",
      "type": "constructor"
    },
    {
      "anonymous": false,
      "inputs": [
        {
          "indexed": true,
          "internalType": "address",
          "name": "owner",
          "type": "address"
        },
        {
          "indexed": true,
          "internalType": "address",
          "name": "approved",
          "type": "address"
        },
        {
          "indexed": true,
          "internalType": "uint256",
          "name": "tokenId",
          "type": "uint256"
        }
      ],
      "name": "Approval",
      "type": "event"
    },
    {
      "anonymous": false,
      "inputs": [
        {
          "indexed": true,
          "internalType": "address",
          "name": "owner",
          "type": "address"
        },
        {
          "indexed": true,
          "internalType": "address",
          "name": "operator",
          "type": "address"
        },
        {
          "indexed": false,
          "internalType": "bool",
          "name": "approved",
          "type": "bool"
        }
      ],
      "name": "ApprovalForAll",
      "type": "event"
    },
    {
      "anonymous": false,
      "inputs": [
        {
          "indexed": true,
          "internalType": "address",
          "name": "from",
          "type": "address"
        },
        {
          "indexed": true,
          "internalType": "address",
          "name": "to",
          "type": "address"
        },
        {
          "indexed": true,
          "internalType": "uint256",
          "name": "tokenId",
          "type": "uint256"
        }
      ],
      "name": "Transfer",
      "type": "event"
    },
    {
      "inputs": [
        {
          "internalType": "address",
          "name": "to",
          "type": "address"
        },
        {
          "internalType": "uint256",
          "name": "tokenId",
          "type": "uint256"
        }
      ],
      "name": "approve",
      "outputs": [],
      "stateMutability": "nonpayable",
      "type": "function"
    },
    {
      "inputs": [
        {
          "internalType": "address",
          "name": "owner",
          "type": "address"
        }
      ],
      "name": "balanceOf",
      "outputs": [
        {
          "internalType": "uint256",
          "name": "",
          "type": "uint256"
        }
      ],
      "stateMutability": "view",
      "type": "function"
    },
    {
      "inputs": [
        {
          "internalType": "uint256",
          "name": "tokenId",
          "type": "uint256"
        }
      ],
      "name": "getApproved",
      "outputs": [
        {
          "internalType": "address",
          "name": "",
          "type": "address"
        }
      ],
      "stateMutability": "view",
      "type": "function"
    },
    {
      "inputs": [
        {
          "internalType": "uint256",
          "name": "_id",
          "type": "uint256"
        }
      ],
      "name": "getOccasion",
      "outputs": [
        {
          "components": [
            {
              "internalType": "uint256",
              "name": "id",
              "type": "uint256"
            },
            {
              "internalType": "string",
              "name": "name",
              "type": "string"
            },
            {
              "internalType": "uint256",
              "name": "cost",
              "type": "uint256"
            },
            {
              "internalType": "uint256",
              "name": "tickets",
              "type": "uint256"
            },
            {
              "internalType": "uint256",
              "name": "maxTickets",
              "type": "uint256"
            },
            {
              "internalType": "string",
              "name": "date",
              "type": "string"
            },
            {
              "internalType": "string",
              "name": "time",
              "type": "string"
            },
            {
              "internalType": "string",
              "name": "location",
              "type": "string"
            }
          ],
          "internalType": "struct TokenMaster.Occasion",
          "name": "",
          "type": "tuple"
        }
      ],
      "stateMutability": "view",
      "type": "function"
    },
    {
      "inputs": [
        {
          "internalType": "uint256",
          "name": "_id",
          "type": "uint256"
        }
      ],
      "name": "getSeatsTaken",
      "outputs": [
        {
          "internalType": "uint256[]",
          "name": "",
          "type": "uint256[]"
        }
      ],
      "stateMutability": "view",
      "type": "function"
    },
    {
      "inputs": [
        {
          "internalType": "uint256",
          "name": "",
          "type": "uint256"
        },
        {
          "internalType": "address",
          "name": "",
          "type": "address"
        }
      ],
      "name": "hasBought",
      "outputs": [
        {
          "internalType": "bool",
          "name": "",
          "type": "bool"
        }
      ],
      "stateMutability": "view",
      "type": "function"
    },
    {
      "inputs": [
        {
          "internalType": "address",
          "name": "owner",
          "type": "address"
        },
        {
          "internalType": "address",
          "name": "operator",
          "type": "address"
        }
      ],
      "name": "isApprovedForAll",
      "outputs": [
        {
          "internalType": "bool",
          "name": "",
          "type": "bool"
        }
      ],
      "stateMutability": "view",
      "type": "function"
    },
    {
      "inputs": [
        {
          "internalType": "string",
          "name": "_name",
          "type": "string"
        },
        {
          "internalType": "uint256",
          "name": "_cost",
          "type": "uint256"
        },
        {
          "internalType": "uint256",
          "name": "_maxTicket",
          "type": "uint256"
        },
        {
          "internalType": "string",
          "name": "_date",
          "type": "string"
        },
        {
          "internalType": "string",
          "name": "_time",
          "type": "string"
        },
        {
          "internalType": "string",
          "name": "_location",
          "type": "string"
        }
      ],
      "name": "list",
      "outputs": [],
      "stateMutability": "nonpayable",
      "type": "function"
    },
    {
      "inputs": [
        {
          "internalType": "uint256",
          "name": "_id",
          "type": "uint256"
        },
        {
          "internalType": "uint256",
          "name": "_seat",
          "type": "uint256"
        }
      ],
      "name": "mint",
      "outputs": [],
      "stateMutability": "payable",
      "type": "function"
    },
    {
      "inputs": [],
      "name": "name",
      "outputs": [
        {
          "internalType": "string",
          "name": "",
          "type": "string"
        }
      ],
      "stateMutability": "view",
      "type": "function"
    },
    {
      "inputs": [],
      "name": "owner",
      "outputs": [
        {
          "internalType": "address",
          "name": "",
          "type": "address"
        }
      ],
      "stateMutability": "view",
      "type": "function"
    },
    {
      "inputs": [
        {
          "internalType": "uint256",
          "name": "tokenId",
          "type": "uint256"
        }
      ],
      "name": "ownerOf",
      "outputs": [
        {
          "internalType": "address",
          "name": "",
          "type": "address"
        }
      ],
      "stateMutability": "view",
      "type": "function"
    },
    {
      "inputs": [
        {
          "internalType": "address",
          "name": "from",
          "type": "address"
        },
        {
          "internalType": "address",
          "name": "to",
          "type": "address"
        },
        {
          "internalType": "uint256",
          "name": "tokenId",
          "type": "uint256"
        }
      ],
      "name": "safeTransferFrom",
      "outputs": [],
      "stateMutability": "nonpayable",
      "type": "function"
    },
    {
      "inputs": [
        {
          "internalType": "address",
          "name": "from",
          "type": "address"
        },
        {
          "internalType": "address",
          "name": "to",
          "type": "address"
        },
        {
          "internalType": "uint256",
          "name": "tokenId",
          "type": "uint256"
        },
        {
          "internalType": "bytes",
          "name": "data",
          "type": "bytes"
        }
      ],
      "name": "safeTransferFrom",
      "outputs": [],
      "stateMutability": "nonpayable",
      "type": "function"
    },
    {
      "inputs": [
        {
          "internalType": "uint256",
          "name": "",
          "type": "uint256"
        },
        {
          "internalType": "uint256",
          "name": "",
          "type": "uint256"
        }
      ],
      "name": "seatTaken",
      "outputs": [
        {
          "internalType": "address",
          "name": "",
          "type": "address"
        }
      ],
      "stateMutability": "view",
      "type": "function"
    },
    {
      "inputs": [
        {
          "internalType": "uint256",
          "name": "",
          "type": "uint256"
        },
        {
          "internalType": "uint256",
          "name": "",
          "type": "uint256"
        }
      ],
      "name": "seatsTaken",
      "outputs": [
        {
          "internalType": "uint256",
          "name": "",
          "type": "uint256"
        }
      ],
      "stateMutability": "view",
      "type": "function"
    },
    {
      "inputs": [
        {
          "internalType": "address",
          "name": "operator",
          "type": "address"
        },
        {
          "internalType": "bool",
          "name": "approved",
          "type": "bool"
        }
      ],
      "name": "setApprovalForAll",
      "outputs": [],
      "stateMutability": "nonpayable",
      "type": "function"
    },
    {
      "inputs": [
        {
          "internalType": "bytes4",
          "name": "interfaceId",
          "type": "bytes4"
        }
      ],
      "name": "supportsInterface",
      "outputs": [
        {
          "internalType": "bool",
          "name": "",
          "type": "bool"
        }
      ],
      "stateMutability": "view",
      "type": "function"
    },
    {
      "inputs": [],
      "name": "symbol",
      "outputs": [
        {
          "internalType": "string",
          "name": "",
          "type": "string"
        }
      ],
      "stateMutability": "view",
      "type": "function"
    },
    {
      "inputs": [
        {
          "internalType": "uint256",
          "name": "tokenId",
          "type": "uint256"
        }
      ],
      "name": "tokenURI",
      "outputs": [
        {
          "internalType": "string",
          "name": "",
          "type": "string"
        }
      ],
      "stateMutability": "view",
      "type": "function"
    },
    {
      "inputs": [],
      "name": "totalOccasions",
      "outputs": [
        {
          "internalType": "uint256",
          "name": "",
          "type": "uint256"
        }
      ],
      "stateMutability": "view",
      "type": "function"
    },
    {
      "inputs": [],
      "name": "totalSupply",
      "outputs": [
        {
          "internalType": "uint256",
          "name": "",
          "type": "uint256"
        }
      ],
      "stateMutability": "view",
      "type": "function"
    },
    {
      "inputs": [
        {
          "internalType": "address",
          "name": "from",
          "type": "address"
        },
        {
          "internalType": "address",
          "name": "to",
          "type": "address"
        },
        {
          "internalType": "uint256",
          "name": "tokenId",
          "type": "uint256"
        }
      ],
      "name": "transferFrom",
      "outputs": [],
      "stateMutability": "nonpayable",
      "type": "function"
    }
  ],
  "bytecode": "0x60806040523480156200001157600080fd5b5060405162003bc538038062003bc583398181016040528101906200003791906200023b565b818181600090816200004a91906200050b565b5080600190816200005c91906200050b565b50505033600660006101000a81548173ffffffffffffffffffffffffffffffffffffffff021916908373ffffffffffffffffffffffffffffffffffffffff1602179055505050620005f2565b6000604051905090565b600080fd5b600080fd5b600080fd5b600080fd5b6000601f19601f8301169050919050565b7f4e487b7100000000000000000000000000000000000000000000000000000000600052604160045260246000fd5b6200011182620000c6565b810181811067ffffffffffffffff82111715620001335762000132620000d7565b5b80604052505050565b600062000148620000a8565b905062000156828262000106565b919050565b600067ffffffffffffffff821115620001795762000178620000d7565b5b6200018482620000c6565b9050602081019050919050565b60005b83811015620001b157808201518184015260208101905062000194565b60008484015250505050565b6000620001d4620001ce846200015b565b6200013c565b905082815260208101848484011115620001f357620001f2620000c1565b5b6200020084828562000191565b509392505050565b600082601f83011262000220576200021f620000bc565b5b815162000232848260208601620001bd565b91505092915050565b60008060408385031215620002555762000254620000b2565b5b600083015167ffffffffffffffff811115620002765762000275620000b7565b5b620002848582860162000208565b925050602083015167ffffffffffffffff811115620002a857620002a7620000b7565b5b620002b68582860162000208565b9150509250929050565b600081519050919050565b7f4e487b7100000000000000000000000000000000000000000000000000000000600052602260045260246000fd5b600060028204905060018216806200031357607f821691505b602082108103620003295762000328620002cb565b5b50919050565b60008190508160005260206000209050919050565b60006020601f8301049050919050565b600082821b905092915050565b600060088302620003937fffffffffffffffffffffffffffffffffffffffffffffffffffffffffffffffff8262000354565b6200039f868362000354565b95508019841693508086168417925050509392505050565b6000819050919050565b6000819050919050565b6000620003ec620003e6620003e084620003b7565b620003c1565b620003b7565b9050919050565b6000819050919050565b6200040883620003cb565b620004206200041782620003f3565b84845462000361565b825550505050565b600090565b6200043762000428565b62000444818484620003fd565b505050565b5b818110156200046c57620004606000826200042d565b6001810190506200044a565b5050565b601f821115620004bb5762000485816200032f565b620004908462000344565b81016020851015620004a0578190505b620004b8620004af8562000344565b83018262000449565b50505b505050565b600082821c905092915050565b6000620004e060001984600802620004c0565b1980831691505092915050565b6000620004fb8383620004cd565b9150826002028217905092915050565b6200051682620002c0565b67ffffffffffffffff811115620005325762000531620000d7565b5b6200053e8254620002fa565b6200054b82828562000470565b600060209050601f8311600181146200058357600084156200056e578287015190505b6200057a8582620004ed565b865550620005ea565b601f19841662000593866200032f565b60005b82811015620005bd5784890151825560018201915060208501945060208101905062000596565b86831015620005dd5784890151620005d9601f891682620004cd565b8355505b6001600288020188555050505b505050505050565b6135c380620006026000396000f3fe6080604052600436106101405760003560e01c806370a08231116100b65780639cb04aef1161006f5780639cb04aef14610487578063a22cb465146104c4578063af296da1146104ed578063b88d4fde1461052a578063c87b56dd14610553578063e985e9c51461059057610140565b806370a082311461036357806374bc8656146103a05780638da5cb5b146103dd578063953865c11461040857806395d89b41146104335780639a382f0f1461045e57610140565b806318160ddd1161010857806318160ddd146102505780631b2ef1ca1461027b57806323b872dd1461029757806342842e0e146102c05780634e7497fc146102e95780636352211e1461032657610140565b806301ffc9a71461014557806306fdde0314610182578063081812fc146101ad578063095ea7b3146101ea5780630ef7ec7414610213575b600080fd5b34801561015157600080fd5b5061016c60048036038101906101679190612167565b6105cd565b60405161017991906121af565b60405180910390f35b34801561018e57600080fd5b506101976106af565b6040516101a4919061225a565b60405180910390f35b3480156101b957600080fd5b506101d460048036038101906101cf91906122b2565b610741565b6040516101e19190612320565b60405180910390f35b3480156101f657600080fd5b50610211600480360381019061020c9190612367565b610787565b005b34801561021f57600080fd5b5061023a600480360381019061023591906122b2565b61089e565b6040516102479190612465565b60405180910390f35b34801561025c57600080fd5b50610265610909565b6040516102729190612496565b60405180910390f35b610295600480360381019061029091906124b1565b61090f565b005b3480156102a357600080fd5b506102be60048036038101906102b991906124f1565b610a6b565b005b3480156102cc57600080fd5b506102e760048036038101906102e291906124f1565b610acb565b005b3480156102f557600080fd5b50610310600480360381019061030b91906124b1565b610aeb565b60405161031d9190612496565b60405180910390f35b34801561033257600080fd5b5061034d600480360381019061034891906122b2565b610b1c565b60405161035a9190612320565b60405180910390f35b34801561036f57600080fd5b5061038a60048036038101906103859190612544565b610ba2565b6040516103979190612496565b60405180910390f35b3480156103ac57600080fd5b506103c760048036038101906103c291906122b2565b610c59565b6040516103d49190612680565b60405180910390f35b3480156103e957600080fd5b506103f2610ef7565b6040516103ff9190612320565b60405180910390f35b34801561041457600080fd5b5061041d610f1d565b60405161042a9190612496565b60405180910390f35b34801561043f57600080fd5b50610448610f23565b604051610455919061225a565b60405180910390f35b34801561046a57600080fd5b50610485600480360381019061048091906127d7565b610fb5565b005b34801561049357600080fd5b506104ae60048036038101906104a991906128d4565b611103565b6040516104bb91906121af565b60405180910390f35b3480156104d057600080fd5b506104eb60048036038101906104e69190612940565b611132565b005b3480156104f957600080fd5b50610514600480360381019061050f91906124b1565b611148565b6040516105219190612320565b60405180910390f35b34801561053657600080fd5b50610551600480360381019061054c9190612a21565b61118a565b005b34801561055f57600080fd5b5061057a600480360381019061057591906122b2565b6111ec565b604051610587919061225a565b60405180910390f35b34801561059c57600080fd5b506105b760048036038101906105b29190612aa4565b611254565b6040516105c491906121af565b60405180910390f35b60007f80ac58cd000000000000000000000000000000000000000000000000000000007bffffffffffffffffffffffffffffffffffffffffffffffffffffffff1916827bffffffffffffffffffffffffffffffffffffffffffffffffffffffff1916148061069857507f5b5e139f000000000000000000000000000000000000000000000000000000007bffffffffffffffffffffffffffffffffffffffffffffffffffffffff1916827bffffffffffffffffffffffffffffffffffffffffffffffffffffffff1916145b806106a857506106a7826112e8565b5b9050919050565b6060600080546106be90612b13565b80601f01602080910402602001604051908101604052809291908181526020018280546106ea90612b13565b80156107375780601f1061070c57610100808354040283529160200191610737565b820191906000526020600020905b81548152906001019060200180831161071a57829003601f168201915b5050505050905090565b600061074c82611352565b6004600083815260200190815260200160002060009054906101000a900473ffffffffffffffffffffffffffffffffffffffff169050919050565b600061079282610b1c565b90508073ffffffffffffffffffffffffffffffffffffffff168373ffffffffffffffffffffffffffffffffffffffff1603610802576040517f08c379a00000000000000000000000000000000000000000000000000000000081526004016107f990612bb6565b60405180910390fd5b8073ffffffffffffffffffffffffffffffffffffffff1661082161139d565b73ffffffffffffffffffffffffffffffffffffffff161480610850575061084f8161084a61139d565b611254565b5b61088f576040517f08c379a000000000000000000000000000000000000000000000000000000000815260040161088690612c48565b60405180910390fd5b61089983836113a5565b505050565b6060600c60008381526020019081526020016000208054806020026020016040519081016040528092919081815260200182805480156108fd57602002820191906000526020600020905b8154815260200190600101908083116108e9575b50505050509050919050565b60085481565b60016009600084815260200190815260200160002060030160008282546109369190612c97565b925050819055506001600a600084815260200190815260200160002060003373ffffffffffffffffffffffffffffffffffffffff1673ffffffffffffffffffffffffffffffffffffffff16815260200190815260200160002060006101000a81548160ff02191690831515021790555033600b6000848152602001908152602001600020600083815260200190815260200160002060006101000a81548173ffffffffffffffffffffffffffffffffffffffff021916908373ffffffffffffffffffffffffffffffffffffffff160217905550600c600083815260200190815260200160002081908060018154018082558091505060019003906000526020600020016000909190919091505560086000815480929190610a5690612ccb565b9190505550610a673360085461145e565b5050565b610a7c610a7661139d565b8261147c565b610abb576040517f08c379a0000000000000000000000000000000000000000000000000000000008152600401610ab290612d85565b60405180910390fd5b610ac6838383611511565b505050565b610ae68383836040518060200160405280600081525061118a565b505050565b600c6020528160005260406000208181548110610b0757600080fd5b90600052602060002001600091509150505481565b600080610b288361180a565b9050600073ffffffffffffffffffffffffffffffffffffffff168173ffffffffffffffffffffffffffffffffffffffff1603610b99576040517f08c379a0000000000000000000000000000000000000000000000000000000008152600401610b9090612df1565b60405180910390fd5b80915050919050565b60008073ffffffffffffffffffffffffffffffffffffffff168273ffffffffffffffffffffffffffffffffffffffff1603610c12576040517f08c379a0000000000000000000000000000000000000000000000000000000008152600401610c0990612e83565b60405180910390fd5b600360008373ffffffffffffffffffffffffffffffffffffffff1673ffffffffffffffffffffffffffffffffffffffff168152602001908152602001600020549050919050565b610c616120b6565b600960008381526020019081526020016000206040518061010001604052908160008201548152602001600182018054610c9a90612b13565b80601f0160208091040260200160405190810160405280929190818152602001828054610cc690612b13565b8015610d135780601f10610ce857610100808354040283529160200191610d13565b820191906000526020600020905b815481529060010190602001808311610cf657829003601f168201915b50505050508152602001600282015481526020016003820154815260200160048201548152602001600582018054610d4a90612b13565b80601f0160208091040260200160405190810160405280929190818152602001828054610d7690612b13565b8015610dc35780601f10610d9857610100808354040283529160200191610dc3565b820191906000526020600020905b815481529060010190602001808311610da657829003601f168201915b50505050508152602001600682018054610ddc90612b13565b80601f0160208091040260200160405190810160405280929190818152602001828054610e0890612b13565b8015610e555780601f10610e2a57610100808354040283529160200191610e55565b820191906000526020600020905b815481529060010190602001808311610e3857829003601f168201915b50505050508152602001600782018054610e6e90612b13565b80601f0160208091040260200160405190810160405280929190818152602001828054610e9a90612b13565b8015610ee75780601f10610ebc57610100808354040283529160200191610ee7565b820191906000526020600020905b815481529060010190602001808311610eca57829003601f168201915b5050505050815250509050919050565b600660009054906101000a900473ffffffffffffffffffffffffffffffffffffffff1681565b60075481565b606060018054610f3290612b13565b80601f0160208091040260200160405190810160405280929190818152602001828054610f5e90612b13565b8015610fab5780601f10610f8057610100808354040283529160200191610fab565b820191906000526020600020905b815481529060010190602001808311610f8e57829003601f168201915b5050505050905090565b600660009054906101000a900473ffffffffffffffffffffffffffffffffffffffff1673ffffffffffffffffffffffffffffffffffffffff163373ffffffffffffffffffffffffffffffffffffffff161461100f57600080fd5b6007600081548092919061102290612ccb565b9190505550604051806101000160405280600754815260200187815260200186815260200185815260200185815260200184815260200183815260200182815250600960006007548152602001908152602001600020600082015181600001556020820151816001019081611097919061304f565b5060408201518160020155606082015181600301556080820151816004015560a08201518160050190816110cb919061304f565b5060c08201518160060190816110e1919061304f565b5060e08201518160070190816110f7919061304f565b50905050505050505050565b600a6020528160005260406000206020528060005260406000206000915091509054906101000a900460ff1681565b61114461113d61139d565b8383611847565b5050565b600b6020528160005260406000206020528060005260406000206000915091509054906101000a900473ffffffffffffffffffffffffffffffffffffffff1681565b61119b61119561139d565b8361147c565b6111da576040517f08c379a00000000000000000000000000000000000000000000000000000000081526004016111d190612d85565b60405180910390fd5b6111e6848484846119b3565b50505050565b60606111f782611352565b6000611201611a0f565b90506000815111611221576040518060200160405280600081525061124c565b8061122b84611a26565b60405160200161123c92919061315d565b6040516020818303038152906040525b915050919050565b6000600560008473ffffffffffffffffffffffffffffffffffffffff1673ffffffffffffffffffffffffffffffffffffffff16815260200190815260200160002060008373ffffffffffffffffffffffffffffffffffffffff1673ffffffffffffffffffffffffffffffffffffffff16815260200190815260200160002060009054906101000a900460ff16905092915050565b60007f01ffc9a7000000000000000000000000000000000000000000000000000000007bffffffffffffffffffffffffffffffffffffffffffffffffffffffff1916827bffffffffffffffffffffffffffffffffffffffffffffffffffffffff1916149050919050565b61135b81611af4565b61139a576040517f08c379a000000000000000000000000000000000000000000000000000000000815260040161139190612df1565b60405180910390fd5b50565b600033905090565b816004600083815260200190815260200160002060006101000a81548173ffffffffffffffffffffffffffffffffffffffff021916908373ffffffffffffffffffffffffffffffffffffffff160217905550808273ffffffffffffffffffffffffffffffffffffffff1661141883610b1c565b73ffffffffffffffffffffffffffffffffffffffff167f8c5be1e5ebec7d5bd14f71427d1e84f3dd0314c0f7b2291e5b200ac8c7c3b92560405160405180910390a45050565b611478828260405180602001604052806000815250611b35565b5050565b60008061148883610b1c565b90508073ffffffffffffffffffffffffffffffffffffffff168473ffffffffffffffffffffffffffffffffffffffff1614806114ca57506114c98185611254565b5b8061150857508373ffffffffffffffffffffffffffffffffffffffff166114f084610741565b73ffffffffffffffffffffffffffffffffffffffff16145b91505092915050565b8273ffffffffffffffffffffffffffffffffffffffff1661153182610b1c565b73ffffffffffffffffffffffffffffffffffffffff1614611587576040517f08c379a000000000000000000000000000000000000000000000000000000000815260040161157e906131f3565b60405180910390fd5b600073ffffffffffffffffffffffffffffffffffffffff168273ffffffffffffffffffffffffffffffffffffffff16036115f6576040517f08c379a00000000000000000000000000000000000000000000000000000000081526004016115ed90613285565b60405180910390fd5b6116038383836001611b90565b8273ffffffffffffffffffffffffffffffffffffffff1661162382610b1c565b73ffffffffffffffffffffffffffffffffffffffff1614611679576040517f08c379a0000000000000000000000000000000000000000000000000000000008152600401611670906131f3565b60405180910390fd5b6004600082815260200190815260200160002060006101000a81549073ffffffffffffffffffffffffffffffffffffffff02191690556001600360008573ffffffffffffffffffffffffffffffffffffffff1673ffffffffffffffffffffffffffffffffffffffff168152602001908152602001600020600082825403925050819055506001600360008473ffffffffffffffffffffffffffffffffffffffff1673ffffffffffffffffffffffffffffffffffffffff16815260200190815260200160002060008282540192505081905550816002600083815260200190815260200160002060006101000a81548173ffffffffffffffffffffffffffffffffffffffff021916908373ffffffffffffffffffffffffffffffffffffffff160217905550808273ffffffffffffffffffffffffffffffffffffffff168473ffffffffffffffffffffffffffffffffffffffff167fddf252ad1be2c89b69c2b068fc378daa952ba7f163c4a11628f55a4df523b3ef60405160405180910390a46118058383836001611b96565b505050565b60006002600083815260200190815260200160002060009054906101000a900473ffffffffffffffffffffffffffffffffffffffff169050919050565b8173ffffffffffffffffffffffffffffffffffffffff168373ffffffffffffffffffffffffffffffffffffffff16036118b5576040517f08c379a00000000000000000000000000000000000000000000000000000000081526004016118ac906132f1565b60405180910390fd5b80600560008573ffffffffffffffffffffffffffffffffffffffff1673ffffffffffffffffffffffffffffffffffffffff16815260200190815260200160002060008473ffffffffffffffffffffffffffffffffffffffff1673ffffffffffffffffffffffffffffffffffffffff16815260200190815260200160002060006101000a81548160ff0219169083151502179055508173ffffffffffffffffffffffffffffffffffffffff168373ffffffffffffffffffffffffffffffffffffffff167f17307eab39ab6107e8899845ad3d59bd9653f200f220920489ca2b5937696c31836040516119a691906121af565b60405180910390a3505050565b6119be848484611511565b6119ca84848484611b9c565b611a09576040517f08c379a0000000000000000000000000000000000000000000000000000000008152600401611a0090613383565b60405180910390fd5b50505050565b606060405180602001604052806000815250905090565b606060006001611a3584611d23565b01905060008167ffffffffffffffff811115611a5457611a536126ac565b5b6040519080825280601f01601f191660200182016040528015611a865781602001600182028036833780820191505090505b509050600082602001820190505b600115611ae9578080600190039150507f3031323334353637383961626364656600000000000000000000000000000000600a86061a8153600a8581611add57611adc6133a3565b5b04945060008503611a94575b819350505050919050565b60008073ffffffffffffffffffffffffffffffffffffffff16611b168361180a565b73ffffffffffffffffffffffffffffffffffffffff1614159050919050565b611b3f8383611e76565b611b4c6000848484611b9c565b611b8b576040517f08c379a0000000000000000000000000000000000000000000000000000000008152600401611b8290613383565b60405180910390fd5b505050565b50505050565b50505050565b6000611bbd8473ffffffffffffffffffffffffffffffffffffffff16612093565b15611d16578373ffffffffffffffffffffffffffffffffffffffff1663150b7a02611be661139d565b8786866040518563ffffffff1660e01b8152600401611c089493929190613427565b6020604051808303816000875af1925050508015611c4457506040513d601f19601f82011682018060405250810190611c419190613488565b60015b611cc6573d8060008114611c74576040519150601f19603f3d011682016040523d82523d6000602084013e611c79565b606091505b506000815103611cbe576040517f08c379a0000000000000000000000000000000000000000000000000000000008152600401611cb590613383565b60405180910390fd5b805181602001fd5b63150b7a0260e01b7bffffffffffffffffffffffffffffffffffffffffffffffffffffffff1916817bffffffffffffffffffffffffffffffffffffffffffffffffffffffff191614915050611d1b565b600190505b949350505050565b600080600090507a184f03e93ff9f4daa797ed6e38ed64bf6a1f0100000000000000008310611d81577a184f03e93ff9f4daa797ed6e38ed64bf6a1f0100000000000000008381611d7757611d766133a3565b5b0492506040810190505b6d04ee2d6d415b85acef81000000008310611dbe576d04ee2d6d415b85acef81000000008381611db457611db36133a3565b5b0492506020810190505b662386f26fc100008310611ded57662386f26fc100008381611de357611de26133a3565b5b0492506010810190505b6305f5e1008310611e16576305f5e1008381611e0c57611e0b6133a3565b5b0492506008810190505b6127108310611e3b576127108381611e3157611e306133a3565b5b0492506004810190505b60648310611e5e5760648381611e5457611e536133a3565b5b0492506002810190505b600a8310611e6d576001810190505b80915050919050565b600073ffffffffffffffffffffffffffffffffffffffff168273ffffffffffffffffffffffffffffffffffffffff1603611ee5576040517f08c379a0000000000000000000000000000000000000000000000000000000008152600401611edc90613501565b60405180910390fd5b611eee81611af4565b15611f2e576040517f08c379a0000000000000000000000000000000000000000000000000000000008152600401611f259061356d565b60405180910390fd5b611f3c600083836001611b90565b611f4581611af4565b15611f85576040517f08c379a0000000000000000000000000000000000000000000000000000000008152600401611f7c9061356d565b60405180910390fd5b6001600360008473ffffffffffffffffffffffffffffffffffffffff1673ffffffffffffffffffffffffffffffffffffffff16815260200190815260200160002060008282540192505081905550816002600083815260200190815260200160002060006101000a81548173ffffffffffffffffffffffffffffffffffffffff021916908373ffffffffffffffffffffffffffffffffffffffff160217905550808273ffffffffffffffffffffffffffffffffffffffff16600073ffffffffffffffffffffffffffffffffffffffff167fddf252ad1be2c89b69c2b068fc378daa952ba7f163c4a11628f55a4df523b3ef60405160405180910390a461208f600083836001611b96565b5050565b6000808273ffffffffffffffffffffffffffffffffffffffff163b119050919050565b60405180610100016040528060008152602001606081526020016000815260200160008152602001600081526020016060815260200160608152602001606081525090565b6000604051905090565b600080fd5b600080fd5b60007fffffffff0000000000000000000000000000000000000000000000000000000082169050919050565b6121448161210f565b811461214f57600080fd5b50565b6000813590506121618161213b565b92915050565b60006020828403121561217d5761217c612105565b5b600061218b84828501612152565b91505092915050565b60008115159050919050565b6121a981612194565b82525050565b60006020820190506121c460008301846121a0565b92915050565b600081519050919050565b600082825260208201905092915050565b60005b838110156122045780820151818401526020810190506121e9565b60008484015250505050565b6000601f19601f8301169050919050565b600061222c826121ca565b61223681856121d5565b93506122468185602086016121e6565b61224f81612210565b840191505092915050565b600060208201905081810360008301526122748184612221565b905092915050565b6000819050919050565b61228f8161227c565b811461229a57600080fd5b50565b6000813590506122ac81612286565b92915050565b6000602082840312156122c8576122c7612105565b5b60006122d68482850161229d565b91505092915050565b600073ffffffffffffffffffffffffffffffffffffffff82169050919050565b600061230a826122df565b9050919050565b61231a816122ff565b82525050565b60006020820190506123356000830184612311565b92915050565b612344816122ff565b811461234f57600080fd5b50565b6000813590506123618161233b565b92915050565b6000806040838503121561237e5761237d612105565b5b600061238c85828601612352565b925050602061239d8582860161229d565b9150509250929050565b600081519050919050565b600082825260208201905092915050565b6000819050602082019050919050565b6123dc8161227c565b82525050565b60006123ee83836123d3565b60208301905092915050565b6000602082019050919050565b6000612412826123a7565b61241c81856123b2565b9350612427836123c3565b8060005b8381101561245857815161243f88826123e2565b975061244a836123fa565b92505060018101905061242b565b5085935050505092915050565b6000602082019050818103600083015261247f8184612407565b905092915050565b6124908161227c565b82525050565b60006020820190506124ab6000830184612487565b92915050565b600080604083850312156124c8576124c7612105565b5b60006124d68582860161229d565b92505060206124e78582860161229d565b9150509250929050565b60008060006060848603121561250a57612509612105565b5b600061251886828701612352565b935050602061252986828701612352565b925050604061253a8682870161229d565b9150509250925092565b60006020828403121561255a57612559612105565b5b600061256884828501612352565b91505092915050565b600082825260208201905092915050565b600061258d826121ca565b6125978185612571565b93506125a78185602086016121e6565b6125b081612210565b840191505092915050565b6000610100830160008301516125d460008601826123d3565b50602083015184820360208601526125ec8282612582565b915050604083015161260160408601826123d3565b50606083015161261460608601826123d3565b50608083015161262760808601826123d3565b5060a083015184820360a086015261263f8282612582565b91505060c083015184820360c08601526126598282612582565b91505060e083015184820360e08601526126738282612582565b9150508091505092915050565b6000602082019050818103600083015261269a81846125bb565b905092915050565b600080fd5b600080fd5b7f4e487b7100000000000000000000000000000000000000000000000000000000600052604160045260246000fd5b6126e482612210565b810181811067ffffffffffffffff82111715612703576127026126ac565b5b80604052505050565b60006127166120fb565b905061272282826126db565b919050565b600067ffffffffffffffff821115612742576127416126ac565b5b61274b82612210565b9050602081019050919050565b82818337600083830152505050565b600061277a61277584612727565b61270c565b905082815260208101848484011115612796576127956126a7565b5b6127a1848285612758565b509392505050565b600082601f8301126127be576127bd6126a2565b5b81356127ce848260208601612767565b91505092915050565b60008060008060008060c087890312156127f4576127f3612105565b5b600087013567ffffffffffffffff8111156128125761281161210a565b5b61281e89828a016127a9565b965050602061282f89828a0161229d565b955050604061284089828a0161229d565b945050606087013567ffffffffffffffff8111156128615761286061210a565b5b61286d89828a016127a9565b935050608087013567ffffffffffffffff81111561288e5761288d61210a565b5b61289a89828a016127a9565b92505060a087013567ffffffffffffffff8111156128bb576128ba61210a565b5b6128c789828a016127a9565b9150509295509295509295565b600080604083850312156128eb576128ea612105565b5b60006128f98582860161229d565b925050602061290a85828601612352565b9150509250929050565b61291d81612194565b811461292857600080fd5b50565b60008135905061293a81612914565b92915050565b6000806040838503121561295757612956612105565b5b600061296585828601612352565b92505060206129768582860161292b565b9150509250929050565b600067ffffffffffffffff82111561299b5761299a6126ac565b5b6129a482612210565b9050602081019050919050565b60006129c46129bf84612980565b61270c565b9050828152602081018484840111156129e0576129df6126a7565b5b6129eb848285612758565b509392505050565b600082601f830112612a0857612a076126a2565b5b8135612a188482602086016129b1565b91505092915050565b60008060008060808587031215612a3b57612a3a612105565b5b6000612a4987828801612352565b9450506020612a5a87828801612352565b9350506040612a6b8782880161229d565b925050606085013567ffffffffffffffff811115612a8c57612a8b61210a565b5b612a98878288016129f3565b91505092959194509250565b60008060408385031215612abb57612aba612105565b5b6000612ac985828601612352565b9250506020612ada85828601612352565b9150509250929050565b7f4e487b7100000000000000000000000000000000000000000000000000000000600052602260045260246000fd5b60006002820490506001821680612b2b57607f821691505b602082108103612b3e57612b3d612ae4565b5b50919050565b7f4552433732313a20617070726f76616c20746f2063757272656e74206f776e6560008201527f7200000000000000000000000000000000000000000000000000000000000000602082015250565b6000612ba06021836121d5565b9150612bab82612b44565b604082019050919050565b60006020820190508181036000830152612bcf81612b93565b9050919050565b7f4552433732313a20617070726f76652063616c6c6572206973206e6f7420746f60008201527f6b656e206f776e6572206f7220617070726f76656420666f7220616c6c000000602082015250565b6000612c32603d836121d5565b9150612c3d82612bd6565b604082019050919050565b60006020820190508181036000830152612c6181612c25565b9050919050565b7f4e487b7100000000000000000000000000000000000000000000000000000000600052601160045260246000fd5b6000612ca28261227c565b9150612cad8361227c565b9250828203905081811115612cc557612cc4612c68565b5b92915050565b6000612cd68261227c565b91507fffffffffffffffffffffffffffffffffffffffffffffffffffffffffffffffff8203612d0857612d07612c68565b5b600182019050919050565b7f4552433732313a2063616c6c6572206973206e6f7420746f6b656e206f776e6560008201527f72206f7220617070726f76656400000000000000000000000000000000000000602082015250565b6000612d6f602d836121d5565b9150612d7a82612d13565b604082019050919050565b60006020820190508181036000830152612d9e81612d62565b9050919050565b7f4552433732313a20696e76616c696420746f6b656e2049440000000000000000600082015250565b6000612ddb6018836121d5565b9150612de682612da5565b602082019050919050565b60006020820190508181036000830152612e0a81612dce565b9050919050565b7f4552433732313a2061646472657373207a65726f206973206e6f74206120766160008201527f6c6964206f776e65720000000000000000000000000000000000000000000000602082015250565b6000612e6d6029836121d5565b9150612e7882612e11565b604082019050919050565b60006020820190508181036000830152612e9c81612e60565b9050919050565b60008190508160005260206000209050919050565b60006020601f8301049050919050565b600082821b905092915050565b600060088302612f057fffffffffffffffffffffffffffffffffffffffffffffffffffffffffffffffff82612ec8565b612f0f8683612ec8565b95508019841693508086168417925050509392505050565b6000819050919050565b6000612f4c612f47612f428461227c565b612f27565b61227c565b9050919050565b6000819050919050565b612f6683612f31565b612f7a612f7282612f53565b848454612ed5565b825550505050565b600090565b612f8f612f82565b612f9a818484612f5d565b505050565b5b81811015612fbe57612fb3600082612f87565b600181019050612fa0565b5050565b601f82111561300357612fd481612ea3565b612fdd84612eb8565b81016020851015612fec578190505b613000612ff885612eb8565b830182612f9f565b50505b505050565b600082821c905092915050565b600061302660001984600802613008565b1980831691505092915050565b600061303f8383613015565b9150826002028217905092915050565b613058826121ca565b67ffffffffffffffff811115613071576130706126ac565b5b61307b8254612b13565b613086828285612fc2565b600060209050601f8311600181146130b957600084156130a7578287015190505b6130b18582613033565b865550613119565b601f1984166130c786612ea3565b60005b828110156130ef578489015182556001820191506020850194506020810190506130ca565b8683101561310c5784890151613108601f891682613015565b8355505b6001600288020188555050505b505050505050565b600081905092915050565b6000613137826121ca565b6131418185613121565b93506131518185602086016121e6565b80840191505092915050565b6000613169828561312c565b9150613175828461312c565b91508190509392505050565b7f4552433732313a207472616e736665722066726f6d20696e636f72726563742060008201527f6f776e6572000000000000000000000000000000000000000000000000000000602082015250565b60006131dd6025836121d5565b91506131e882613181565b604082019050919050565b6000602082019050818103600083015261320c816131d0565b9050919050565b7f4552433732313a207472616e7366657220746f20746865207a65726f2061646460008201527f7265737300000000000000000000000000000000000000000000000000000000602082015250565b600061326f6024836121d5565b915061327a82613213565b604082019050919050565b6000602082019050818103600083015261329e81613262565b9050919050565b7f4552433732313a20617070726f766520746f2063616c6c657200000000000000600082015250565b60006132db6019836121d5565b91506132e6826132a5565b602082019050919050565b6000602082019050818103600083015261330a816132ce565b9050919050565b7f4552433732313a207472616e7366657220746f206e6f6e20455243373231526560008201527f63656976657220696d706c656d656e7465720000000000000000000000000000602082015250565b600061336d6032836121d5565b915061337882613311565b604082019050919050565b6000602082019050818103600083015261339c81613360565b9050919050565b7f4e487b7100000000000000000000000000000000000000000000000000000000600052601260045260246000fd5b600081519050919050565b600082825260208201905092915050565b60006133f9826133d2565b61340381856133dd565b93506134138185602086016121e6565b61341c81612210565b840191505092915050565b600060808201905061343c6000830187612311565b6134496020830186612311565b6134566040830185612487565b818103606083015261346881846133ee565b905095945050505050565b6000815190506134828161213b565b92915050565b60006020828403121561349e5761349d612105565b5b60006134ac84828501613473565b91505092915050565b7f4552433732313a206d696e7420746f20746865207a65726f2061646472657373600082015250565b60006134eb6020836121d5565b91506134f6826134b5565b602082019050919050565b6000602082019050818103600083015261351a816134de565b9050919050565b7f4552433732313a20746f6b656e20616c7265616479206d696e74656400000000600082015250565b6000613557601c836121d5565b915061356282613521565b602082019050919050565b600060208201905081810360008301526135868161354a565b905091905056fea2646970667358221220ca7ac0d18424caeb79e9b1b0d1c246e2955ab3c4e275c143a5709ed80ebce47e64736f6c63430008110033",
  "linkReferences": {},
  "deployedLinkReferences": {}
}